{
  "_format": "hh-sol-artifact-1",
  "contractName": "Vault",
  "sourceName": "contracts/Vault.sol",
  "abi": [
    {
      "inputs": [
        {
          "internalType": "address",
          "name": "initialOwner",
          "type": "address"
        },
        {
          "internalType": "address",
          "name": "_humaTokenAddress",
          "type": "address"
        },
        {
          "internalType": "uint256",
          "name": "_initialEthEurPrice",
          "type": "uint256"
        }
      ],
      "stateMutability": "nonpayable",
      "type": "constructor"
    },
    {
      "inputs": [
        {
          "internalType": "address",
          "name": "owner",
          "type": "address"
        }
      ],
      "name": "OwnableInvalidOwner",
      "type": "error"
    },
    {
      "inputs": [
        {
          "internalType": "address",
          "name": "account",
          "type": "address"
        }
      ],
      "name": "OwnableUnauthorizedAccount",
      "type": "error"
    },
    {
      "inputs": [],
      "name": "ReentrancyGuardReentrantCall",
      "type": "error"
    },
    {
      "anonymous": false,
      "inputs": [
        {
          "indexed": true,
          "internalType": "address",
          "name": "donor",
          "type": "address"
        },
        {
          "indexed": false,
          "internalType": "uint256",
          "name": "amountETH",
          "type": "uint256"
        },
        {
          "indexed": false,
          "internalType": "uint256",
          "name": "valueEUR",
          "type": "uint256"
        },
        {
          "indexed": false,
          "internalType": "uint256",
          "name": "tokensAwarded",
          "type": "uint256"
        }
      ],
      "name": "Deposit",
      "type": "event"
    },
    {
      "anonymous": false,
      "inputs": [
        {
          "indexed": true,
          "internalType": "address",
          "name": "destination",
          "type": "address"
        },
        {
          "indexed": false,
          "internalType": "uint256",
          "name": "amount",
          "type": "uint256"
        },
        {
          "indexed": false,
          "internalType": "bytes32",
          "name": "proposalId",
          "type": "bytes32"
        }
      ],
      "name": "FundsTransferred",
      "type": "event"
    },
    {
      "anonymous": false,
      "inputs": [
        {
          "indexed": true,
          "internalType": "address",
          "name": "previousGovernance",
          "type": "address"
        },
        {
          "indexed": true,
          "internalType": "address",
          "name": "newGovernance",
          "type": "address"
        }
      ],
      "name": "GovernanceAddressSet",
      "type": "event"
    },
    {
      "anonymous": false,
      "inputs": [
        {
          "indexed": true,
          "internalType": "address",
          "name": "previousOwner",
          "type": "address"
        },
        {
          "indexed": true,
          "internalType": "address",
          "name": "newOwner",
          "type": "address"
        }
      ],
      "name": "OwnershipTransferred",
      "type": "event"
    },
    {
      "anonymous": false,
      "inputs": [
        {
          "indexed": false,
          "internalType": "uint256",
          "name": "oldPrice",
          "type": "uint256"
        },
        {
          "indexed": false,
          "internalType": "uint256",
          "name": "newPrice",
          "type": "uint256"
        }
      ],
      "name": "PriceUpdated",
      "type": "event"
    },
    {
      "stateMutability": "payable",
      "type": "fallback"
    },
    {
      "inputs": [],
      "name": "depositETH",
      "outputs": [],
      "stateMutability": "payable",
      "type": "function"
    },
    {
      "inputs": [],
      "name": "ethEurPrice",
      "outputs": [
        {
          "internalType": "uint256",
          "name": "",
          "type": "uint256"
        }
      ],
      "stateMutability": "view",
      "type": "function"
    },
    {
      "inputs": [],
      "name": "getVaultBalance",
      "outputs": [
        {
          "internalType": "uint256",
          "name": "",
          "type": "uint256"
        }
      ],
      "stateMutability": "view",
      "type": "function"
    },
    {
      "inputs": [],
      "name": "governanceAddress",
      "outputs": [
        {
          "internalType": "address",
          "name": "",
          "type": "address"
        }
      ],
      "stateMutability": "view",
      "type": "function"
    },
    {
      "inputs": [],
      "name": "humaToken",
      "outputs": [
        {
          "internalType": "contract HumaToken",
          "name": "",
          "type": "address"
        }
      ],
      "stateMutability": "view",
      "type": "function"
    },
    {
      "inputs": [
        {
          "internalType": "address",
          "name": "account",
          "type": "address"
        }
      ],
      "name": "isAccountDonator",
      "outputs": [
        {
          "internalType": "bool",
          "name": "",
          "type": "bool"
        }
      ],
      "stateMutability": "view",
      "type": "function"
    },
    {
      "inputs": [
        {
          "internalType": "address",
          "name": "",
          "type": "address"
        }
      ],
      "name": "isDonator",
      "outputs": [
        {
          "internalType": "uint8",
          "name": "",
          "type": "uint8"
        }
      ],
      "stateMutability": "view",
      "type": "function"
    },
    {
      "inputs": [],
      "name": "owner",
      "outputs": [
        {
          "internalType": "address",
          "name": "",
          "type": "address"
        }
      ],
      "stateMutability": "view",
      "type": "function"
    },
    {
      "inputs": [],
      "name": "renounceOwnership",
      "outputs": [],
      "stateMutability": "nonpayable",
      "type": "function"
    },
    {
      "inputs": [
        {
          "internalType": "address",
          "name": "_governanceAddress",
          "type": "address"
        }
      ],
      "name": "setGovernanceAddress",
      "outputs": [],
      "stateMutability": "nonpayable",
      "type": "function"
    },
    {
      "inputs": [
        {
          "internalType": "address payable",
          "name": "destination",
          "type": "address"
        },
        {
          "internalType": "uint256",
          "name": "amount",
          "type": "uint256"
        },
        {
          "internalType": "bytes32",
          "name": "proposalId",
          "type": "bytes32"
        }
      ],
      "name": "transferFunds",
      "outputs": [],
      "stateMutability": "nonpayable",
      "type": "function"
    },
    {
      "inputs": [
        {
          "internalType": "address",
          "name": "newOwner",
          "type": "address"
        }
      ],
      "name": "transferOwnership",
      "outputs": [],
      "stateMutability": "nonpayable",
      "type": "function"
    },
    {
      "inputs": [
        {
          "internalType": "uint256",
          "name": "_newEthEurPrice",
          "type": "uint256"
        }
      ],
      "name": "updateEthEurPrice",
      "outputs": [],
      "stateMutability": "nonpayable",
      "type": "function"
    },
    {
      "stateMutability": "payable",
      "type": "receive"
    }
  ],
  "bytecode": "0x608060405234801561001057600080fd5b50604051611c14380380611c148339818101604052810190610032919061038a565b82600073ffffffffffffffffffffffffffffffffffffffff168173ffffffffffffffffffffffffffffffffffffffff16036100a55760006040517f1e4fbdf700000000000000000000000000000000000000000000000000000000815260040161009c91906103ec565b60405180910390fd5b6100b48161022d60201b60201c565b5060018081905550600073ffffffffffffffffffffffffffffffffffffffff168373ffffffffffffffffffffffffffffffffffffffff160361012b576040517f08c379a00000000000000000000000000000000000000000000000000000000081526004016101229061048a565b60405180910390fd5b600073ffffffffffffffffffffffffffffffffffffffff168273ffffffffffffffffffffffffffffffffffffffff160361019a576040517f08c379a00000000000000000000000000000000000000000000000000000000081526004016101919061051c565b60405180910390fd5b600081116101dd576040517f08c379a00000000000000000000000000000000000000000000000000000000081526004016101d490610588565b60405180910390fd5b81600260006101000a81548173ffffffffffffffffffffffffffffffffffffffff021916908373ffffffffffffffffffffffffffffffffffffffff160217905550806004819055505050506105a8565b60008060009054906101000a900473ffffffffffffffffffffffffffffffffffffffff169050816000806101000a81548173ffffffffffffffffffffffffffffffffffffffff021916908373ffffffffffffffffffffffffffffffffffffffff1602179055508173ffffffffffffffffffffffffffffffffffffffff168173ffffffffffffffffffffffffffffffffffffffff167f8be0079c531659141344cd1fd0a4f28419497f9722a3daafe3b4186f6b6457e060405160405180910390a35050565b600080fd5b600073ffffffffffffffffffffffffffffffffffffffff82169050919050565b6000610321826102f6565b9050919050565b61033181610316565b811461033c57600080fd5b50565b60008151905061034e81610328565b92915050565b6000819050919050565b61036781610354565b811461037257600080fd5b50565b6000815190506103848161035e565b92915050565b6000806000606084860312156103a3576103a26102f1565b5b60006103b18682870161033f565b93505060206103c28682870161033f565b92505060406103d386828701610375565b9150509250925092565b6103e681610316565b82525050565b600060208201905061040160008301846103dd565b92915050565b600082825260208201905092915050565b7f5661756c743a206f776e65722063616e6e6f74206265207a65726f206164647260008201527f6573730000000000000000000000000000000000000000000000000000000000602082015250565b6000610474602383610407565b915061047f82610418565b604082019050919050565b600060208201905081810360008301526104a381610467565b9050919050565b7f5661756c743a20746f6b656e20616464726573732063616e6e6f74206265207a60008201527f65726f2061646472657373000000000000000000000000000000000000000000602082015250565b6000610506602b83610407565b9150610511826104aa565b604082019050919050565b60006020820190508181036000830152610535816104f9565b9050919050565b7f5661756c743a207072696365206d75737420626520706f736974697665000000600082015250565b6000610572601d83610407565b915061057d8261053c565b602082019050919050565b600060208201905081810360008301526105a181610565565b9050919050565b61165d806105b76000396000f3fe6080604052600436106100c65760003560e01c80638be434731161007f578063cfc1625411610059578063cfc162541461026e578063ed12e8ef14610297578063f2fde38b146102c2578063f6326fb3146102eb576100d5565b80638be43473146101f15780638da5cb5b1461021a578063a070d09814610245576100d5565b80633a358a99146100df5780633ebb59fa1461011c5780634eb90fc8146101475780636577ef6814610184578063715018a6146101af578063795053d3146101c6576100d5565b366100d5576100d36102f5565b005b6100dd6102f5565b005b3480156100eb57600080fd5b5061010660048036038101906101019190610d26565b61051e565b6040516101139190610d6e565b60405180910390f35b34801561012857600080fd5b5061013161057a565b60405161013e9190610da2565b60405180910390f35b34801561015357600080fd5b5061016e60048036038101906101699190610d26565b610580565b60405161017b9190610dd9565b60405180910390f35b34801561019057600080fd5b506101996105a0565b6040516101a69190610e53565b60405180910390f35b3480156101bb57600080fd5b506101c46105c6565b005b3480156101d257600080fd5b506101db6105da565b6040516101e89190610e7d565b60405180910390f35b3480156101fd57600080fd5b5061021860048036038101906102139190610f38565b610600565b005b34801561022657600080fd5b5061022f610897565b60405161023c9190610e7d565b60405180910390f35b34801561025157600080fd5b5061026c60048036038101906102679190610f8b565b6108c0565b005b34801561027a57600080fd5b5061029560048036038101906102909190610d26565b610956565b005b3480156102a357600080fd5b506102ac610a93565b6040516102b99190610da2565b60405180910390f35b3480156102ce57600080fd5b506102e960048036038101906102e49190610d26565b610a9b565b005b6102f36102f5565b005b6102fd610b21565b60003411610340576040517f08c379a00000000000000000000000000000000000000000000000000000000081526004016103379061103b565b60405180910390fd5b6000600560003373ffffffffffffffffffffffffffffffffffffffff1673ffffffffffffffffffffffffffffffffffffffff16815260200190815260200160002060009054906101000a900460ff1690506000670de0b6b3a7640000600454346103aa919061108a565b6103b491906110fb565b905060008260ff160361041b576001600560003373ffffffffffffffffffffffffffffffffffffffff1673ffffffffffffffffffffffffffffffffffffffff16815260200190815260200160002060006101000a81548160ff021916908360ff1602179055505b6000600260009054906101000a900473ffffffffffffffffffffffffffffffffffffffff1673ffffffffffffffffffffffffffffffffffffffff166340c10f1933846040518363ffffffff1660e01b815260040161047a92919061112c565b6020604051808303816000875af1158015610499573d6000803e3d6000fd5b505050506040513d601f19601f820116820180604052508101906104bd919061116a565b90503373ffffffffffffffffffffffffffffffffffffffff167f36af321ec8d3c75236829c5317affd40ddb308863a1236d2d277a4025cccee1e34848460405161050993929190611197565b60405180910390a250505061051c610b67565b565b60006001600560008473ffffffffffffffffffffffffffffffffffffffff1673ffffffffffffffffffffffffffffffffffffffff16815260200190815260200160002060009054906101000a900460ff1660ff16149050919050565b60045481565b60056020528060005260406000206000915054906101000a900460ff1681565b600260009054906101000a900473ffffffffffffffffffffffffffffffffffffffff1681565b6105ce610b70565b6105d86000610bf7565b565b600360009054906101000a900473ffffffffffffffffffffffffffffffffffffffff1681565b600360009054906101000a900473ffffffffffffffffffffffffffffffffffffffff1673ffffffffffffffffffffffffffffffffffffffff163373ffffffffffffffffffffffffffffffffffffffff1614610690576040517f08c379a000000000000000000000000000000000000000000000000000000000815260040161068790611240565b60405180910390fd5b610698610b21565b600073ffffffffffffffffffffffffffffffffffffffff168373ffffffffffffffffffffffffffffffffffffffff1603610707576040517f08c379a00000000000000000000000000000000000000000000000000000000081526004016106fe906112d2565b60405180910390fd5b6000821161074a576040517f08c379a000000000000000000000000000000000000000000000000000000000815260040161074190611364565b60405180910390fd5b4782111561078d576040517f08c379a0000000000000000000000000000000000000000000000000000000008152600401610784906113f6565b60405180910390fd5b8273ffffffffffffffffffffffffffffffffffffffff167f3ecfa03832a495e5499b395b07959f0e0ca475e0e87fd665e909d25f0be8505783836040516107d5929190611425565b60405180910390a260008373ffffffffffffffffffffffffffffffffffffffff16836040516108039061147f565b60006040518083038185875af1925050503d8060008114610840576040519150601f19603f3d011682016040523d82523d6000602084013e610845565b606091505b5050905080610889576040517f08c379a0000000000000000000000000000000000000000000000000000000008152600401610880906114e0565b60405180910390fd5b50610892610b67565b505050565b60008060009054906101000a900473ffffffffffffffffffffffffffffffffffffffff16905090565b6108c8610b70565b6000811161090b576040517f08c379a00000000000000000000000000000000000000000000000000000000081526004016109029061154c565b60405180910390fd5b60006004549050816004819055507f945c1c4e99aa89f648fbfe3df471b916f719e16d960fcec0737d4d56bd696838818360405161094a92919061156c565b60405180910390a15050565b61095e610b70565b600073ffffffffffffffffffffffffffffffffffffffff168173ffffffffffffffffffffffffffffffffffffffff16036109cd576040517f08c379a00000000000000000000000000000000000000000000000000000000081526004016109c490611607565b60405180910390fd5b6000600360009054906101000a900473ffffffffffffffffffffffffffffffffffffffff16905081600360006101000a81548173ffffffffffffffffffffffffffffffffffffffff021916908373ffffffffffffffffffffffffffffffffffffffff1602179055508173ffffffffffffffffffffffffffffffffffffffff168173ffffffffffffffffffffffffffffffffffffffff167f8db0d1c9054394a933dee3de6e0d12bf461b9b63b41dde1b4b49762435db5c9e60405160405180910390a35050565b600047905090565b610aa3610b70565b600073ffffffffffffffffffffffffffffffffffffffff168173ffffffffffffffffffffffffffffffffffffffff1603610b155760006040517f1e4fbdf7000000000000000000000000000000000000000000000000000000008152600401610b0c9190610e7d565b60405180910390fd5b610b1e81610bf7565b50565b600260015403610b5d576040517f3ee5aeb500000000000000000000000000000000000000000000000000000000815260040160405180910390fd5b6002600181905550565b60018081905550565b610b78610cbb565b73ffffffffffffffffffffffffffffffffffffffff16610b96610897565b73ffffffffffffffffffffffffffffffffffffffff1614610bf557610bb9610cbb565b6040517f118cdaa7000000000000000000000000000000000000000000000000000000008152600401610bec9190610e7d565b60405180910390fd5b565b60008060009054906101000a900473ffffffffffffffffffffffffffffffffffffffff169050816000806101000a81548173ffffffffffffffffffffffffffffffffffffffff021916908373ffffffffffffffffffffffffffffffffffffffff1602179055508173ffffffffffffffffffffffffffffffffffffffff168173ffffffffffffffffffffffffffffffffffffffff167f8be0079c531659141344cd1fd0a4f28419497f9722a3daafe3b4186f6b6457e060405160405180910390a35050565b600033905090565b600080fd5b600073ffffffffffffffffffffffffffffffffffffffff82169050919050565b6000610cf382610cc8565b9050919050565b610d0381610ce8565b8114610d0e57600080fd5b50565b600081359050610d2081610cfa565b92915050565b600060208284031215610d3c57610d3b610cc3565b5b6000610d4a84828501610d11565b91505092915050565b60008115159050919050565b610d6881610d53565b82525050565b6000602082019050610d836000830184610d5f565b92915050565b6000819050919050565b610d9c81610d89565b82525050565b6000602082019050610db76000830184610d93565b92915050565b600060ff82169050919050565b610dd381610dbd565b82525050565b6000602082019050610dee6000830184610dca565b92915050565b6000819050919050565b6000610e19610e14610e0f84610cc8565b610df4565b610cc8565b9050919050565b6000610e2b82610dfe565b9050919050565b6000610e3d82610e20565b9050919050565b610e4d81610e32565b82525050565b6000602082019050610e686000830184610e44565b92915050565b610e7781610ce8565b82525050565b6000602082019050610e926000830184610e6e565b92915050565b6000610ea382610cc8565b9050919050565b610eb381610e98565b8114610ebe57600080fd5b50565b600081359050610ed081610eaa565b92915050565b610edf81610d89565b8114610eea57600080fd5b50565b600081359050610efc81610ed6565b92915050565b6000819050919050565b610f1581610f02565b8114610f2057600080fd5b50565b600081359050610f3281610f0c565b92915050565b600080600060608486031215610f5157610f50610cc3565b5b6000610f5f86828701610ec1565b9350506020610f7086828701610eed565b9250506040610f8186828701610f23565b9150509250925092565b600060208284031215610fa157610fa0610cc3565b5b6000610faf84828501610eed565b91505092915050565b600082825260208201905092915050565b7f5661756c743a20646f6e6174696f6e206d75737420626520677265617465722060008201527f7468616e20300000000000000000000000000000000000000000000000000000602082015250565b6000611025602683610fb8565b915061103082610fc9565b604082019050919050565b6000602082019050818103600083015261105481611018565b9050919050565b7f4e487b7100000000000000000000000000000000000000000000000000000000600052601160045260246000fd5b600061109582610d89565b91506110a083610d89565b92508282026110ae81610d89565b915082820484148315176110c5576110c461105b565b5b5092915050565b7f4e487b7100000000000000000000000000000000000000000000000000000000600052601260045260246000fd5b600061110682610d89565b915061111183610d89565b925082611121576111206110cc565b5b828204905092915050565b60006040820190506111416000830185610e6e565b61114e6020830184610d93565b9392505050565b60008151905061116481610ed6565b92915050565b6000602082840312156111805761117f610cc3565b5b600061118e84828501611155565b91505092915050565b60006060820190506111ac6000830186610d93565b6111b96020830185610d93565b6111c66040830184610d93565b949350505050565b7f5661756c743a2063616c6c6572206973206e6f742074686520476f7665726e6160008201527f6e63650000000000000000000000000000000000000000000000000000000000602082015250565b600061122a602383610fb8565b9150611235826111ce565b604082019050919050565b600060208201905081810360008301526112598161121d565b9050919050565b7f5661756c743a2064657374696e6174696f6e2063616e6e6f74206265207a657260008201527f6f20616464726573730000000000000000000000000000000000000000000000602082015250565b60006112bc602983610fb8565b91506112c782611260565b604082019050919050565b600060208201905081810360008301526112eb816112af565b9050919050565b7f5661756c743a20616d6f756e74206d757374206265206772656174657220746860008201527f616e203000000000000000000000000000000000000000000000000000000000602082015250565b600061134e602483610fb8565b9150611359826112f2565b604082019050919050565b6000602082019050818103600083015261137d81611341565b9050919050565b7f5661756c743a20696e73756666696369656e742066756e647320696e2076617560008201527f6c74000000000000000000000000000000000000000000000000000000000000602082015250565b60006113e0602283610fb8565b91506113eb82611384565b604082019050919050565b6000602082019050818103600083015261140f816113d3565b9050919050565b61141f81610f02565b82525050565b600060408201905061143a6000830185610d93565b6114476020830184611416565b9392505050565b600081905092915050565b50565b600061146960008361144e565b915061147482611459565b600082019050919050565b600061148a8261145c565b9150819050919050565b7f5661756c743a207472616e73666572206661696c656400000000000000000000600082015250565b60006114ca601683610fb8565b91506114d582611494565b602082019050919050565b600060208201905081810360008301526114f9816114bd565b9050919050565b7f5661756c743a207072696365206d75737420626520706f736974697665000000600082015250565b6000611536601d83610fb8565b915061154182611500565b602082019050919050565b6000602082019050818103600083015261156581611529565b9050919050565b60006040820190506115816000830185610d93565b61158e6020830184610d93565b9392505050565b7f5661756c743a20676f7665726e616e63652063616e6e6f74206265207a65726f60008201527f2061646472657373000000000000000000000000000000000000000000000000602082015250565b60006115f1602883610fb8565b91506115fc82611595565b604082019050919050565b60006020820190508181036000830152611620816115e4565b905091905056fea2646970667358221220cca8aaad8bf73977b07b5a32baa9e400d83e21770c6216a84cc65f2491b8d4aa64736f6c634300081d0033",
  "linkReferences": {},
  "deployedLinkReferences": {}
}