{
  "_format": "hh-sol-artifact-1",
  "contractName": "HumaToken",
  "sourceName": "contracts/HumaToken.sol",
  "abi": [
    {
      "inputs": [
        {
          "internalType": "address",
          "name": "initialOwner",
          "type": "address"
        }
      ],
      "stateMutability": "nonpayable",
      "type": "constructor"
    },
    {
      "inputs": [
        {
          "internalType": "address",
          "name": "spender",
          "type": "address"
        },
        {
          "internalType": "uint256",
          "name": "allowance",
          "type": "uint256"
        },
        {
          "internalType": "uint256",
          "name": "needed",
          "type": "uint256"
        }
      ],
      "name": "ERC20InsufficientAllowance",
      "type": "error"
    },
    {
      "inputs": [
        {
          "internalType": "address",
          "name": "sender",
          "type": "address"
        },
        {
          "internalType": "uint256",
          "name": "balance",
          "type": "uint256"
        },
        {
          "internalType": "uint256",
          "name": "needed",
          "type": "uint256"
        }
      ],
      "name": "ERC20InsufficientBalance",
      "type": "error"
    },
    {
      "inputs": [
        {
          "internalType": "address",
          "name": "approver",
          "type": "address"
        }
      ],
      "name": "ERC20InvalidApprover",
      "type": "error"
    },
    {
      "inputs": [
        {
          "internalType": "address",
          "name": "receiver",
          "type": "address"
        }
      ],
      "name": "ERC20InvalidReceiver",
      "type": "error"
    },
    {
      "inputs": [
        {
          "internalType": "address",
          "name": "sender",
          "type": "address"
        }
      ],
      "name": "ERC20InvalidSender",
      "type": "error"
    },
    {
      "inputs": [
        {
          "internalType": "address",
          "name": "spender",
          "type": "address"
        }
      ],
      "name": "ERC20InvalidSpender",
      "type": "error"
    },
    {
      "inputs": [
        {
          "internalType": "address",
          "name": "owner",
          "type": "address"
        }
      ],
      "name": "OwnableInvalidOwner",
      "type": "error"
    },
    {
      "inputs": [
        {
          "internalType": "address",
          "name": "account",
          "type": "address"
        }
      ],
      "name": "OwnableUnauthorizedAccount",
      "type": "error"
    },
    {
      "inputs": [],
      "name": "ReentrancyGuardReentrantCall",
      "type": "error"
    },
    {
      "anonymous": false,
      "inputs": [
        {
          "indexed": true,
          "internalType": "address",
          "name": "owner",
          "type": "address"
        },
        {
          "indexed": true,
          "internalType": "address",
          "name": "spender",
          "type": "address"
        },
        {
          "indexed": false,
          "internalType": "uint256",
          "name": "value",
          "type": "uint256"
        }
      ],
      "name": "Approval",
      "type": "event"
    },
    {
      "anonymous": false,
      "inputs": [
        {
          "indexed": true,
          "internalType": "address",
          "name": "previousGovernance",
          "type": "address"
        },
        {
          "indexed": true,
          "internalType": "address",
          "name": "newGovernance",
          "type": "address"
        }
      ],
      "name": "GovernanceAddressSet",
      "type": "event"
    },
    {
      "anonymous": false,
      "inputs": [
        {
          "indexed": true,
          "internalType": "address",
          "name": "previousOwner",
          "type": "address"
        },
        {
          "indexed": true,
          "internalType": "address",
          "name": "newOwner",
          "type": "address"
        }
      ],
      "name": "OwnershipTransferred",
      "type": "event"
    },
    {
      "anonymous": false,
      "inputs": [
        {
          "indexed": true,
          "internalType": "address",
          "name": "from",
          "type": "address"
        },
        {
          "indexed": false,
          "internalType": "uint256",
          "name": "amount",
          "type": "uint256"
        }
      ],
      "name": "TokensBurned",
      "type": "event"
    },
    {
      "anonymous": false,
      "inputs": [
        {
          "indexed": true,
          "internalType": "address",
          "name": "from",
          "type": "address"
        },
        {
          "indexed": true,
          "internalType": "address",
          "name": "to",
          "type": "address"
        },
        {
          "indexed": false,
          "internalType": "uint256",
          "name": "value",
          "type": "uint256"
        }
      ],
      "name": "Transfer",
      "type": "event"
    },
    {
      "anonymous": false,
      "inputs": [
        {
          "indexed": true,
          "internalType": "address",
          "name": "previousVault",
          "type": "address"
        },
        {
          "indexed": true,
          "internalType": "address",
          "name": "newVault",
          "type": "address"
        }
      ],
      "name": "VaultAddressSet",
      "type": "event"
    },
    {
      "inputs": [
        {
          "internalType": "address",
          "name": "owner",
          "type": "address"
        },
        {
          "internalType": "address",
          "name": "spender",
          "type": "address"
        }
      ],
      "name": "allowance",
      "outputs": [
        {
          "internalType": "uint256",
          "name": "",
          "type": "uint256"
        }
      ],
      "stateMutability": "view",
      "type": "function"
    },
    {
      "inputs": [
        {
          "internalType": "address",
          "name": "spender",
          "type": "address"
        },
        {
          "internalType": "uint256",
          "name": "value",
          "type": "uint256"
        }
      ],
      "name": "approve",
      "outputs": [
        {
          "internalType": "bool",
          "name": "",
          "type": "bool"
        }
      ],
      "stateMutability": "nonpayable",
      "type": "function"
    },
    {
      "inputs": [
        {
          "internalType": "address",
          "name": "account",
          "type": "address"
        }
      ],
      "name": "balanceOf",
      "outputs": [
        {
          "internalType": "uint256",
          "name": "",
          "type": "uint256"
        }
      ],
      "stateMutability": "view",
      "type": "function"
    },
    {
      "inputs": [
        {
          "internalType": "address",
          "name": "from",
          "type": "address"
        },
        {
          "internalType": "uint256",
          "name": "amount",
          "type": "uint256"
        }
      ],
      "name": "burnFrom",
      "outputs": [],
      "stateMutability": "nonpayable",
      "type": "function"
    },
    {
      "inputs": [],
      "name": "decimals",
      "outputs": [
        {
          "internalType": "uint8",
          "name": "",
          "type": "uint8"
        }
      ],
      "stateMutability": "view",
      "type": "function"
    },
    {
      "inputs": [],
      "name": "governanceAddress",
      "outputs": [
        {
          "internalType": "address",
          "name": "",
          "type": "address"
        }
      ],
      "stateMutability": "view",
      "type": "function"
    },
    {
      "inputs": [
        {
          "internalType": "address",
          "name": "to",
          "type": "address"
        },
        {
          "internalType": "uint256",
          "name": "donationValueEUR",
          "type": "uint256"
        }
      ],
      "name": "mint",
      "outputs": [
        {
          "internalType": "uint256",
          "name": "",
          "type": "uint256"
        }
      ],
      "stateMutability": "nonpayable",
      "type": "function"
    },
    {
      "inputs": [],
      "name": "name",
      "outputs": [
        {
          "internalType": "string",
          "name": "",
          "type": "string"
        }
      ],
      "stateMutability": "view",
      "type": "function"
    },
    {
      "inputs": [],
      "name": "owner",
      "outputs": [
        {
          "internalType": "address",
          "name": "",
          "type": "address"
        }
      ],
      "stateMutability": "view",
      "type": "function"
    },
    {
      "inputs": [],
      "name": "renounceOwnership",
      "outputs": [],
      "stateMutability": "nonpayable",
      "type": "function"
    },
    {
      "inputs": [
        {
          "internalType": "address",
          "name": "_governanceAddress",
          "type": "address"
        }
      ],
      "name": "setGovernanceAddress",
      "outputs": [],
      "stateMutability": "nonpayable",
      "type": "function"
    },
    {
      "inputs": [
        {
          "internalType": "address",
          "name": "_vaultAddress",
          "type": "address"
        }
      ],
      "name": "setVaultAddress",
      "outputs": [],
      "stateMutability": "nonpayable",
      "type": "function"
    },
    {
      "inputs": [],
      "name": "symbol",
      "outputs": [
        {
          "internalType": "string",
          "name": "",
          "type": "string"
        }
      ],
      "stateMutability": "view",
      "type": "function"
    },
    {
      "inputs": [],
      "name": "totalSupply",
      "outputs": [
        {
          "internalType": "uint256",
          "name": "",
          "type": "uint256"
        }
      ],
      "stateMutability": "view",
      "type": "function"
    },
    {
      "inputs": [
        {
          "internalType": "address",
          "name": "to",
          "type": "address"
        },
        {
          "internalType": "uint256",
          "name": "value",
          "type": "uint256"
        }
      ],
      "name": "transfer",
      "outputs": [
        {
          "internalType": "bool",
          "name": "",
          "type": "bool"
        }
      ],
      "stateMutability": "nonpayable",
      "type": "function"
    },
    {
      "inputs": [
        {
          "internalType": "address",
          "name": "from",
          "type": "address"
        },
        {
          "internalType": "address",
          "name": "to",
          "type": "address"
        },
        {
          "internalType": "uint256",
          "name": "value",
          "type": "uint256"
        }
      ],
      "name": "transferFrom",
      "outputs": [
        {
          "internalType": "bool",
          "name": "",
          "type": "bool"
        }
      ],
      "stateMutability": "nonpayable",
      "type": "function"
    },
    {
      "inputs": [
        {
          "internalType": "address",
          "name": "newOwner",
          "type": "address"
        }
      ],
      "name": "transferOwnership",
      "outputs": [],
      "stateMutability": "nonpayable",
      "type": "function"
    },
    {
      "inputs": [],
      "name": "vaultAddress",
      "outputs": [
        {
          "internalType": "address",
          "name": "",
          "type": "address"
        }
      ],
      "stateMutability": "view",
      "type": "function"
    }
  ],
  "bytecode": "0x608060405234801561001057600080fd5b50604051612a21380380612a21833981810160405281019061003291906102e9565b806040518060400160405280601281526020017f48756d616e6974617269616e20546f6b656e00000000000000000000000000008152506040518060400160405280600481526020017f48554d410000000000000000000000000000000000000000000000000000000081525081600390816100ae9190610566565b5080600490816100be9190610566565b505050600073ffffffffffffffffffffffffffffffffffffffff168173ffffffffffffffffffffffffffffffffffffffff16036101335760006040517f1e4fbdf700000000000000000000000000000000000000000000000000000000815260040161012a9190610647565b60405180910390fd5b610142816101c060201b60201c565b506001600681905550600073ffffffffffffffffffffffffffffffffffffffff168173ffffffffffffffffffffffffffffffffffffffff16036101ba576040517f08c379a00000000000000000000000000000000000000000000000000000000081526004016101b1906106e5565b60405180910390fd5b50610705565b6000600560009054906101000a900473ffffffffffffffffffffffffffffffffffffffff16905081600560006101000a81548173ffffffffffffffffffffffffffffffffffffffff021916908373ffffffffffffffffffffffffffffffffffffffff1602179055508173ffffffffffffffffffffffffffffffffffffffff168173ffffffffffffffffffffffffffffffffffffffff167f8be0079c531659141344cd1fd0a4f28419497f9722a3daafe3b4186f6b6457e060405160405180910390a35050565b600080fd5b600073ffffffffffffffffffffffffffffffffffffffff82169050919050565b60006102b68261028b565b9050919050565b6102c6816102ab565b81146102d157600080fd5b50565b6000815190506102e3816102bd565b92915050565b6000602082840312156102ff576102fe610286565b5b600061030d848285016102d4565b91505092915050565b600081519050919050565b7f4e487b7100000000000000000000000000000000000000000000000000000000600052604160045260246000fd5b7f4e487b7100000000000000000000000000000000000000000000000000000000600052602260045260246000fd5b6000600282049050600182168061039757607f821691505b6020821081036103aa576103a9610350565b5b50919050565b60008190508160005260206000209050919050565b60006020601f8301049050919050565b600082821b905092915050565b6000600883026104127fffffffffffffffffffffffffffffffffffffffffffffffffffffffffffffffff826103d5565b61041c86836103d5565b95508019841693508086168417925050509392505050565b6000819050919050565b6000819050919050565b600061046361045e61045984610434565b61043e565b610434565b9050919050565b6000819050919050565b61047d83610448565b6104916104898261046a565b8484546103e2565b825550505050565b600090565b6104a6610499565b6104b1818484610474565b505050565b5b818110156104d5576104ca60008261049e565b6001810190506104b7565b5050565b601f82111561051a576104eb816103b0565b6104f4846103c5565b81016020851015610503578190505b61051761050f856103c5565b8301826104b6565b50505b505050565b600082821c905092915050565b600061053d6000198460080261051f565b1980831691505092915050565b6000610556838361052c565b9150826002028217905092915050565b61056f82610316565b67ffffffffffffffff81111561058857610587610321565b5b610592825461037f565b61059d8282856104d9565b600060209050601f8311600181146105d057600084156105be578287015190505b6105c8858261054a565b865550610630565b601f1984166105de866103b0565b60005b82811015610606578489015182556001820191506020850194506020810190506105e1565b86831015610623578489015161061f601f89168261052c565b8355505b6001600288020188555050505b505050505050565b610641816102ab565b82525050565b600060208201905061065c6000830184610638565b92915050565b600082825260208201905092915050565b7f48756d61546f6b656e3a206f776e65722063616e6e6f74206265207a65726f2060008201527f6164647265737300000000000000000000000000000000000000000000000000602082015250565b60006106cf602783610662565b91506106da82610673565b604082019050919050565b600060208201905081810360008301526106fe816106c2565b9050919050565b61230d806107146000396000f3fe608060405234801561001057600080fd5b50600436106101165760003560e01c8063795053d3116100a257806395d89b411161007157806395d89b41146102d1578063a9059cbb146102ef578063cfc162541461031f578063dd62ed3e1461033b578063f2fde38b1461036b57610116565b8063795053d31461025d57806379cc67901461027b57806385535cc5146102975780638da5cb5b146102b357610116565b8063313ce567116100e9578063313ce567146101b757806340c10f19146101d5578063430bf08a1461020557806370a0823114610223578063715018a61461025357610116565b806306fdde031461011b578063095ea7b31461013957806318160ddd1461016957806323b872dd14610187575b600080fd5b610123610387565b6040516101309190611879565b60405180910390f35b610153600480360381019061014e9190611934565b610419565b604051610160919061198f565b60405180910390f35b61017161043c565b60405161017e91906119b9565b60405180910390f35b6101a1600480360381019061019c91906119d4565b610446565b6040516101ae919061198f565b60405180910390f35b6101bf610475565b6040516101cc9190611a43565b60405180910390f35b6101ef60048036038101906101ea9190611934565b61047e565b6040516101fc91906119b9565b60405180910390f35b61020d610625565b60405161021a9190611a6d565b60405180910390f35b61023d60048036038101906102389190611a88565b61064b565b60405161024a91906119b9565b60405180910390f35b61025b610693565b005b6102656106a7565b6040516102729190611a6d565b60405180910390f35b61029560048036038101906102909190611934565b6106cd565b005b6102b160048036038101906102ac9190611a88565b6108c6565b005b6102bb610a6d565b6040516102c89190611a6d565b60405180910390f35b6102d9610a97565b6040516102e69190611879565b60405180910390f35b61030960048036038101906103049190611934565b610b29565b604051610316919061198f565b60405180910390f35b61033960048036038101906103349190611a88565b610b4c565b005b61035560048036038101906103509190611ab5565b610cf3565b60405161036291906119b9565b60405180910390f35b61038560048036038101906103809190611a88565b610d7a565b005b60606003805461039690611b24565b80601f01602080910402602001604051908101604052809291908181526020018280546103c290611b24565b801561040f5780601f106103e45761010080835404028352916020019161040f565b820191906000526020600020905b8154815290600101906020018083116103f257829003601f168201915b5050505050905090565b600080610424610e00565b9050610431818585610e08565b600191505092915050565b6000600254905090565b600080610451610e00565b905061045e858285610e1a565b610469858585610eaf565b60019150509392505050565b60006012905090565b6000600760009054906101000a900473ffffffffffffffffffffffffffffffffffffffff1673ffffffffffffffffffffffffffffffffffffffff163373ffffffffffffffffffffffffffffffffffffffff1614610510576040517f08c379a000000000000000000000000000000000000000000000000000000000815260040161050790611bc7565b60405180910390fd5b610518610fa3565b600073ffffffffffffffffffffffffffffffffffffffff168373ffffffffffffffffffffffffffffffffffffffff1603610587576040517f08c379a000000000000000000000000000000000000000000000000000000000815260040161057e90611c59565b60405180910390fd5b600082116105ca576040517f08c379a00000000000000000000000000000000000000000000000000000000081526004016105c190611ceb565b60405180910390fd5b6000600a836105d99190611d69565b90506000633b9aca006105eb85610fe9565b6105f59190611d9a565b9050600081836106059190611ddc565b90506106118682611186565b80935050505061061f611208565b92915050565b600760009054906101000a900473ffffffffffffffffffffffffffffffffffffffff1681565b60008060008373ffffffffffffffffffffffffffffffffffffffff1673ffffffffffffffffffffffffffffffffffffffff168152602001908152602001600020549050919050565b61069b611212565b6106a56000611299565b565b600860009054906101000a900473ffffffffffffffffffffffffffffffffffffffff1681565b600860009054906101000a900473ffffffffffffffffffffffffffffffffffffffff1673ffffffffffffffffffffffffffffffffffffffff163373ffffffffffffffffffffffffffffffffffffffff161461075d576040517f08c379a000000000000000000000000000000000000000000000000000000000815260040161075490611e82565b60405180910390fd5b610765610fa3565b600073ffffffffffffffffffffffffffffffffffffffff168273ffffffffffffffffffffffffffffffffffffffff16036107d4576040517f08c379a00000000000000000000000000000000000000000000000000000000081526004016107cb90611f14565b60405180910390fd5b60008111610817576040517f08c379a000000000000000000000000000000000000000000000000000000000815260040161080e90611fa6565b60405180910390fd5b806108218361064b565b1015610862576040517f08c379a000000000000000000000000000000000000000000000000000000000815260040161085990612038565b60405180910390fd5b61086c828261135f565b8173ffffffffffffffffffffffffffffffffffffffff167ffd38818f5291bf0bb3a2a48aadc06ba8757865d1dabd804585338aab3009dcb6826040516108b291906119b9565b60405180910390a26108c2611208565b5050565b6108ce611212565b600073ffffffffffffffffffffffffffffffffffffffff16600760009054906101000a900473ffffffffffffffffffffffffffffffffffffffff1673ffffffffffffffffffffffffffffffffffffffff161461095f576040517f08c379a0000000000000000000000000000000000000000000000000000000008152600401610956906120ca565b60405180910390fd5b600073ffffffffffffffffffffffffffffffffffffffff168173ffffffffffffffffffffffffffffffffffffffff16036109ce576040517f08c379a00000000000000000000000000000000000000000000000000000000081526004016109c59061215c565b60405180910390fd5b80600760006101000a81548173ffffffffffffffffffffffffffffffffffffffff021916908373ffffffffffffffffffffffffffffffffffffffff1602179055508073ffffffffffffffffffffffffffffffffffffffff16600073ffffffffffffffffffffffffffffffffffffffff167fa7e0c3d8f7eef668a3772dd695704a83d3c31bac643fa043459f2a016aec83d160405160405180910390a350565b6000600560009054906101000a900473ffffffffffffffffffffffffffffffffffffffff16905090565b606060048054610aa690611b24565b80601f0160208091040260200160405190810160405280929190818152602001828054610ad290611b24565b8015610b1f5780601f10610af457610100808354040283529160200191610b1f565b820191906000526020600020905b815481529060010190602001808311610b0257829003601f168201915b5050505050905090565b600080610b34610e00565b9050610b41818585610eaf565b600191505092915050565b610b54611212565b600073ffffffffffffffffffffffffffffffffffffffff16600860009054906101000a900473ffffffffffffffffffffffffffffffffffffffff1673ffffffffffffffffffffffffffffffffffffffff1614610be5576040517f08c379a0000000000000000000000000000000000000000000000000000000008152600401610bdc906121ee565b60405180910390fd5b600073ffffffffffffffffffffffffffffffffffffffff168173ffffffffffffffffffffffffffffffffffffffff1603610c54576040517f08c379a0000000000000000000000000000000000000000000000000000000008152600401610c4b90612280565b60405180910390fd5b80600860006101000a81548173ffffffffffffffffffffffffffffffffffffffff021916908373ffffffffffffffffffffffffffffffffffffffff1602179055508073ffffffffffffffffffffffffffffffffffffffff16600073ffffffffffffffffffffffffffffffffffffffff167f8db0d1c9054394a933dee3de6e0d12bf461b9b63b41dde1b4b49762435db5c9e60405160405180910390a350565b6000600160008473ffffffffffffffffffffffffffffffffffffffff1673ffffffffffffffffffffffffffffffffffffffff16815260200190815260200160002060008373ffffffffffffffffffffffffffffffffffffffff1673ffffffffffffffffffffffffffffffffffffffff16815260200190815260200160002054905092915050565b610d82611212565b600073ffffffffffffffffffffffffffffffffffffffff168173ffffffffffffffffffffffffffffffffffffffff1603610df45760006040517f1e4fbdf7000000000000000000000000000000000000000000000000000000008152600401610deb9190611a6d565b60405180910390fd5b610dfd81611299565b50565b600033905090565b610e1583838360016113e1565b505050565b6000610e268484610cf3565b90507fffffffffffffffffffffffffffffffffffffffffffffffffffffffffffffffff811015610ea95781811015610e99578281836040517ffb8f41b2000000000000000000000000000000000000000000000000000000008152600401610e90939291906122a0565b60405180910390fd5b610ea8848484840360006113e1565b5b50505050565b600073ffffffffffffffffffffffffffffffffffffffff168373ffffffffffffffffffffffffffffffffffffffff1603610f215760006040517f96c6fd1e000000000000000000000000000000000000000000000000000000008152600401610f189190611a6d565b60405180910390fd5b600073ffffffffffffffffffffffffffffffffffffffff168273ffffffffffffffffffffffffffffffffffffffff1603610f935760006040517fec442f05000000000000000000000000000000000000000000000000000000008152600401610f8a9190611a6d565b60405180910390fd5b610f9e8383836115b8565b505050565b600260065403610fdf576040517f3ee5aeb500000000000000000000000000000000000000000000000000000000815260040160405180910390fd5b6002600681905550565b600060018211610ffb57819050611181565b6000829050600060019050700100000000000000000000000000000000821061102d57608082901c9150604081901b90505b68010000000000000000821061104c57604082901c9150602081901b90505b640100000000821061106757602082901c9150601081901b90505b62010000821061108057601082901c9150600881901b90505b610100821061109857600882901c9150600481901b90505b601082106110af57600482901c9150600281901b90505b600482106110bf57600181901b90505b600181600302901c905060018185816110db576110da611d0b565b5b048201901c905060018185816110f4576110f3611d0b565b5b048201901c9050600181858161110d5761110c611d0b565b5b048201901c9050600181858161112657611125611d0b565b5b048201901c9050600181858161113f5761113e611d0b565b5b048201901c9050600181858161115857611157611d0b565b5b048201901c905061117a81858161117257611171611d0b565b5b0482116117dd565b8103925050505b919050565b600073ffffffffffffffffffffffffffffffffffffffff168273ffffffffffffffffffffffffffffffffffffffff16036111f85760006040517fec442f050000000000000000000000000000000000000000000000000000000081526004016111ef9190611a6d565b60405180910390fd5b611204600083836115b8565b5050565b6001600681905550565b61121a610e00565b73ffffffffffffffffffffffffffffffffffffffff16611238610a6d565b73ffffffffffffffffffffffffffffffffffffffff16146112975761125b610e00565b6040517f118cdaa700000000000000000000000000000000000000000000000000000000815260040161128e9190611a6d565b60405180910390fd5b565b6000600560009054906101000a900473ffffffffffffffffffffffffffffffffffffffff16905081600560006101000a81548173ffffffffffffffffffffffffffffffffffffffff021916908373ffffffffffffffffffffffffffffffffffffffff1602179055508173ffffffffffffffffffffffffffffffffffffffff168173ffffffffffffffffffffffffffffffffffffffff167f8be0079c531659141344cd1fd0a4f28419497f9722a3daafe3b4186f6b6457e060405160405180910390a35050565b600073ffffffffffffffffffffffffffffffffffffffff168273ffffffffffffffffffffffffffffffffffffffff16036113d15760006040517f96c6fd1e0000000000000000000000000000000000000000000000000000000081526004016113c89190611a6d565b60405180910390fd5b6113dd826000836115b8565b5050565b600073ffffffffffffffffffffffffffffffffffffffff168473ffffffffffffffffffffffffffffffffffffffff16036114535760006040517fe602df0500000000000000000000000000000000000000000000000000000000815260040161144a9190611a6d565b60405180910390fd5b600073ffffffffffffffffffffffffffffffffffffffff168373ffffffffffffffffffffffffffffffffffffffff16036114c55760006040517f94280d620000000000000000000000000000000000000000000000000000000081526004016114bc9190611a6d565b60405180910390fd5b81600160008673ffffffffffffffffffffffffffffffffffffffff1673ffffffffffffffffffffffffffffffffffffffff16815260200190815260200160002060008573ffffffffffffffffffffffffffffffffffffffff1673ffffffffffffffffffffffffffffffffffffffff1681526020019081526020016000208190555080156115b2578273ffffffffffffffffffffffffffffffffffffffff168473ffffffffffffffffffffffffffffffffffffffff167f8c5be1e5ebec7d5bd14f71427d1e84f3dd0314c0f7b2291e5b200ac8c7c3b925846040516115a991906119b9565b60405180910390a35b50505050565b600073ffffffffffffffffffffffffffffffffffffffff168373ffffffffffffffffffffffffffffffffffffffff160361160a5780600260008282546115fe9190611ddc565b925050819055506116dd565b60008060008573ffffffffffffffffffffffffffffffffffffffff1673ffffffffffffffffffffffffffffffffffffffff16815260200190815260200160002054905081811015611696578381836040517fe450d38c00000000000000000000000000000000000000000000000000000000815260040161168d939291906122a0565b60405180910390fd5b8181036000808673ffffffffffffffffffffffffffffffffffffffff1673ffffffffffffffffffffffffffffffffffffffff16815260200190815260200160002081905550505b600073ffffffffffffffffffffffffffffffffffffffff168273ffffffffffffffffffffffffffffffffffffffff16036117265780600260008282540392505081905550611773565b806000808473ffffffffffffffffffffffffffffffffffffffff1673ffffffffffffffffffffffffffffffffffffffff168152602001908152602001600020600082825401925050819055505b8173ffffffffffffffffffffffffffffffffffffffff168373ffffffffffffffffffffffffffffffffffffffff167fddf252ad1be2c89b69c2b068fc378daa952ba7f163c4a11628f55a4df523b3ef836040516117d091906119b9565b60405180910390a3505050565b60008115159050919050565b600081519050919050565b600082825260208201905092915050565b60005b83811015611823578082015181840152602081019050611808565b60008484015250505050565b6000601f19601f8301169050919050565b600061184b826117e9565b61185581856117f4565b9350611865818560208601611805565b61186e8161182f565b840191505092915050565b600060208201905081810360008301526118938184611840565b905092915050565b600080fd5b600073ffffffffffffffffffffffffffffffffffffffff82169050919050565b60006118cb826118a0565b9050919050565b6118db816118c0565b81146118e657600080fd5b50565b6000813590506118f8816118d2565b92915050565b6000819050919050565b611911816118fe565b811461191c57600080fd5b50565b60008135905061192e81611908565b92915050565b6000806040838503121561194b5761194a61189b565b5b6000611959858286016118e9565b925050602061196a8582860161191f565b9150509250929050565b60008115159050919050565b61198981611974565b82525050565b60006020820190506119a46000830184611980565b92915050565b6119b3816118fe565b82525050565b60006020820190506119ce60008301846119aa565b92915050565b6000806000606084860312156119ed576119ec61189b565b5b60006119fb868287016118e9565b9350506020611a0c868287016118e9565b9250506040611a1d8682870161191f565b9150509250925092565b600060ff82169050919050565b611a3d81611a27565b82525050565b6000602082019050611a586000830184611a34565b92915050565b611a67816118c0565b82525050565b6000602082019050611a826000830184611a5e565b92915050565b600060208284031215611a9e57611a9d61189b565b5b6000611aac848285016118e9565b91505092915050565b60008060408385031215611acc57611acb61189b565b5b6000611ada858286016118e9565b9250506020611aeb858286016118e9565b9150509250929050565b7f4e487b7100000000000000000000000000000000000000000000000000000000600052602260045260246000fd5b60006002820490506001821680611b3c57607f821691505b602082108103611b4f57611b4e611af5565b5b50919050565b7f48756d61546f6b656e3a2063616c6c6572206973206e6f74207468652056617560008201527f6c74000000000000000000000000000000000000000000000000000000000000602082015250565b6000611bb16022836117f4565b9150611bbc82611b55565b604082019050919050565b60006020820190508181036000830152611be081611ba4565b9050919050565b7f48756d61546f6b656e3a206d696e7420746f20746865207a65726f206164647260008201527f6573730000000000000000000000000000000000000000000000000000000000602082015250565b6000611c436023836117f4565b9150611c4e82611be7565b604082019050919050565b60006020820190508181036000830152611c7281611c36565b9050919050565b7f48756d61546f6b656e3a20646f6e6174696f6e2076616c7565206d757374206260008201527f6520706f73697469766500000000000000000000000000000000000000000000602082015250565b6000611cd5602a836117f4565b9150611ce082611c79565b604082019050919050565b60006020820190508181036000830152611d0481611cc8565b9050919050565b7f4e487b7100000000000000000000000000000000000000000000000000000000600052601260045260246000fd5b7f4e487b7100000000000000000000000000000000000000000000000000000000600052601160045260246000fd5b6000611d74826118fe565b9150611d7f836118fe565b925082611d8f57611d8e611d0b565b5b828204905092915050565b6000611da5826118fe565b9150611db0836118fe565b9250828202611dbe816118fe565b91508282048414831517611dd557611dd4611d3a565b5b5092915050565b6000611de7826118fe565b9150611df2836118fe565b9250828201905080821115611e0a57611e09611d3a565b5b92915050565b7f48756d61546f6b656e3a2063616c6c6572206973206e6f742074686520476f7660008201527f65726e616e636500000000000000000000000000000000000000000000000000602082015250565b6000611e6c6027836117f4565b9150611e7782611e10565b604082019050919050565b60006020820190508181036000830152611e9b81611e5f565b9050919050565b7f48756d61546f6b656e3a206275726e2066726f6d20746865207a65726f20616460008201527f6472657373000000000000000000000000000000000000000000000000000000602082015250565b6000611efe6025836117f4565b9150611f0982611ea2565b604082019050919050565b60006020820190508181036000830152611f2d81611ef1565b9050919050565b7f48756d61546f6b656e3a206275726e20616d6f756e74206d757374206265207060008201527f6f73697469766500000000000000000000000000000000000000000000000000602082015250565b6000611f906027836117f4565b9150611f9b82611f34565b604082019050919050565b60006020820190508181036000830152611fbf81611f83565b9050919050565b7f48756d61546f6b656e3a206275726e20616d6f756e742065786365656473206260008201527f616c616e63650000000000000000000000000000000000000000000000000000602082015250565b60006120226026836117f4565b915061202d82611fc6565b604082019050919050565b6000602082019050818103600083015261205181612015565b9050919050565b7f48756d61546f6b656e3a207661756c74206164647265737320616c726561647960008201527f2073657400000000000000000000000000000000000000000000000000000000602082015250565b60006120b46024836117f4565b91506120bf82612058565b604082019050919050565b600060208201905081810360008301526120e3816120a7565b9050919050565b7f48756d61546f6b656e3a207661756c7420616464726573732063616e6e6f742060008201527f6265207a65726f00000000000000000000000000000000000000000000000000602082015250565b60006121466027836117f4565b9150612151826120ea565b604082019050919050565b6000602082019050818103600083015261217581612139565b9050919050565b7f48756d61546f6b656e3a20676f7665726e616e6365206164647265737320616c60008201527f7265616479207365740000000000000000000000000000000000000000000000602082015250565b60006121d86029836117f4565b91506121e38261217c565b604082019050919050565b60006020820190508181036000830152612207816121cb565b9050919050565b7f48756d61546f6b656e3a20676f7665726e616e6365206164647265737320636160008201527f6e6e6f74206265207a65726f0000000000000000000000000000000000000000602082015250565b600061226a602c836117f4565b91506122758261220e565b604082019050919050565b600060208201905081810360008301526122998161225d565b9050919050565b60006060820190506122b56000830186611a5e565b6122c260208301856119aa565b6122cf60408301846119aa565b94935050505056fea26469706673582212202e33de99cd9993d3a68fd30bd86895d186368861bb9b1662ac8a875d7334f89164736f6c634300081d0033",
  "linkReferences": {},
  "deployedLinkReferences": {}
}