{
  "_format": "hh-sol-artifact-1",
  "contractName": "Governance",
  "sourceName": "contracts/Governance.sol",
  "abi": [
    {
      "inputs": [
        {
          "internalType": "address",
          "name": "_humaTokenAddress",
          "type": "address"
        },
        {
          "internalType": "address payable",
          "name": "_vaultAddress",
          "type": "address"
        },
        {
          "internalType": "address[]",
          "name": "_initialBoardMembers",
          "type": "address[]"
        }
      ],
      "stateMutability": "nonpayable",
      "type": "constructor"
    },
    {
      "inputs": [],
      "name": "AccessControlBadConfirmation",
      "type": "error"
    },
    {
      "inputs": [
        {
          "internalType": "address",
          "name": "account",
          "type": "address"
        },
        {
          "internalType": "bytes32",
          "name": "neededRole",
          "type": "bytes32"
        }
      ],
      "name": "AccessControlUnauthorizedAccount",
      "type": "error"
    },
    {
      "inputs": [],
      "name": "ReentrancyGuardReentrantCall",
      "type": "error"
    },
    {
      "anonymous": false,
      "inputs": [
        {
          "indexed": false,
          "internalType": "uint256",
          "name": "oldQuorum",
          "type": "uint256"
        },
        {
          "indexed": false,
          "internalType": "uint256",
          "name": "newQuorum",
          "type": "uint256"
        }
      ],
      "name": "BaseQuorumUpdated",
      "type": "event"
    },
    {
      "anonymous": false,
      "inputs": [
        {
          "indexed": false,
          "internalType": "uint256",
          "name": "oldMax",
          "type": "uint256"
        },
        {
          "indexed": false,
          "internalType": "uint256",
          "name": "newMax",
          "type": "uint256"
        }
      ],
      "name": "MaxActiveProposalsUpdated",
      "type": "event"
    },
    {
      "anonymous": false,
      "inputs": [
        {
          "indexed": false,
          "internalType": "uint256",
          "name": "oldPeriod",
          "type": "uint256"
        },
        {
          "indexed": false,
          "internalType": "uint256",
          "name": "newPeriod",
          "type": "uint256"
        }
      ],
      "name": "MinDeliberationPeriodUpdated",
      "type": "event"
    },
    {
      "anonymous": false,
      "inputs": [
        {
          "indexed": true,
          "internalType": "bytes32",
          "name": "proposalId",
          "type": "bytes32"
        },
        {
          "indexed": true,
          "internalType": "address",
          "name": "proposer",
          "type": "address"
        },
        {
          "indexed": false,
          "internalType": "string",
          "name": "title",
          "type": "string"
        },
        {
          "indexed": false,
          "internalType": "uint256",
          "name": "amount",
          "type": "uint256"
        },
        {
          "indexed": false,
          "internalType": "address",
          "name": "recipient",
          "type": "address"
        },
        {
          "indexed": false,
          "internalType": "enum Governance.ProposalType",
          "name": "proposalType",
          "type": "uint8"
        }
      ],
      "name": "ProposalCreated",
      "type": "event"
    },
    {
      "anonymous": false,
      "inputs": [
        {
          "indexed": true,
          "internalType": "bytes32",
          "name": "proposalId",
          "type": "bytes32"
        },
        {
          "indexed": true,
          "internalType": "address",
          "name": "executor",
          "type": "address"
        }
      ],
      "name": "ProposalExecuted",
      "type": "event"
    },
    {
      "anonymous": false,
      "inputs": [
        {
          "indexed": true,
          "internalType": "bytes32",
          "name": "proposalId",
          "type": "bytes32"
        }
      ],
      "name": "ProposalExpired",
      "type": "event"
    },
    {
      "anonymous": false,
      "inputs": [
        {
          "indexed": true,
          "internalType": "bytes32",
          "name": "proposalId",
          "type": "bytes32"
        },
        {
          "indexed": false,
          "internalType": "enum Governance.ProposalStatus",
          "name": "status",
          "type": "uint8"
        },
        {
          "indexed": false,
          "internalType": "uint256",
          "name": "votesFor",
          "type": "uint256"
        },
        {
          "indexed": false,
          "internalType": "uint256",
          "name": "votesAgainst",
          "type": "uint256"
        }
      ],
      "name": "ProposalFinalized",
      "type": "event"
    },
    {
      "anonymous": false,
      "inputs": [
        {
          "indexed": true,
          "internalType": "bytes32",
          "name": "proposalId",
          "type": "bytes32"
        },
        {
          "indexed": true,
          "internalType": "address",
          "name": "boardMember",
          "type": "address"
        },
        {
          "indexed": false,
          "internalType": "string",
          "name": "reason",
          "type": "string"
        }
      ],
      "name": "ProposalVetoed",
      "type": "event"
    },
    {
      "anonymous": false,
      "inputs": [
        {
          "indexed": true,
          "internalType": "bytes32",
          "name": "role",
          "type": "bytes32"
        },
        {
          "indexed": true,
          "internalType": "bytes32",
          "name": "previousAdminRole",
          "type": "bytes32"
        },
        {
          "indexed": true,
          "internalType": "bytes32",
          "name": "newAdminRole",
          "type": "bytes32"
        }
      ],
      "name": "RoleAdminChanged",
      "type": "event"
    },
    {
      "anonymous": false,
      "inputs": [
        {
          "indexed": true,
          "internalType": "bytes32",
          "name": "role",
          "type": "bytes32"
        },
        {
          "indexed": true,
          "internalType": "address",
          "name": "account",
          "type": "address"
        },
        {
          "indexed": true,
          "internalType": "address",
          "name": "sender",
          "type": "address"
        }
      ],
      "name": "RoleGranted",
      "type": "event"
    },
    {
      "anonymous": false,
      "inputs": [
        {
          "indexed": true,
          "internalType": "bytes32",
          "name": "role",
          "type": "bytes32"
        },
        {
          "indexed": true,
          "internalType": "address",
          "name": "account",
          "type": "address"
        },
        {
          "indexed": true,
          "internalType": "address",
          "name": "sender",
          "type": "address"
        }
      ],
      "name": "RoleRevoked",
      "type": "event"
    },
    {
      "anonymous": false,
      "inputs": [
        {
          "indexed": true,
          "internalType": "bytes32",
          "name": "proposalId",
          "type": "bytes32"
        },
        {
          "indexed": true,
          "internalType": "address",
          "name": "voter",
          "type": "address"
        },
        {
          "indexed": false,
          "internalType": "bool",
          "name": "support",
          "type": "bool"
        },
        {
          "indexed": false,
          "internalType": "uint256",
          "name": "amount",
          "type": "uint256"
        }
      ],
      "name": "VoteCast",
      "type": "event"
    },
    {
      "anonymous": false,
      "inputs": [
        {
          "indexed": false,
          "internalType": "uint256",
          "name": "standardPeriod",
          "type": "uint256"
        },
        {
          "indexed": false,
          "internalType": "uint256",
          "name": "emergencyPeriod",
          "type": "uint256"
        }
      ],
      "name": "VotingPeriodUpdated",
      "type": "event"
    },
    {
      "inputs": [],
      "name": "BOARD_ROLE",
      "outputs": [
        {
          "internalType": "bytes32",
          "name": "",
          "type": "bytes32"
        }
      ],
      "stateMutability": "view",
      "type": "function"
    },
    {
      "inputs": [],
      "name": "DEFAULT_ADMIN_ROLE",
      "outputs": [
        {
          "internalType": "bytes32",
          "name": "",
          "type": "bytes32"
        }
      ],
      "stateMutability": "view",
      "type": "function"
    },
    {
      "inputs": [
        {
          "internalType": "address",
          "name": "newBoardMember",
          "type": "address"
        }
      ],
      "name": "addBoardMember",
      "outputs": [],
      "stateMutability": "nonpayable",
      "type": "function"
    },
    {
      "inputs": [],
      "name": "baseQuorumPercentage",
      "outputs": [
        {
          "internalType": "uint256",
          "name": "",
          "type": "uint256"
        }
      ],
      "stateMutability": "view",
      "type": "function"
    },
    {
      "inputs": [
        {
          "internalType": "bytes32",
          "name": "proposalId",
          "type": "bytes32"
        },
        {
          "internalType": "bool",
          "name": "support",
          "type": "bool"
        },
        {
          "internalType": "uint256",
          "name": "amount",
          "type": "uint256"
        }
      ],
      "name": "castVote",
      "outputs": [],
      "stateMutability": "nonpayable",
      "type": "function"
    },
    {
      "inputs": [
        {
          "internalType": "bytes32[]",
          "name": "_proposalIdsToCheck",
          "type": "bytes32[]"
        }
      ],
      "name": "cleanupExpiredProposals",
      "outputs": [],
      "stateMutability": "nonpayable",
      "type": "function"
    },
    {
      "inputs": [
        {
          "internalType": "string",
          "name": "title",
          "type": "string"
        },
        {
          "internalType": "string",
          "name": "description",
          "type": "string"
        },
        {
          "internalType": "uint256",
          "name": "amount",
          "type": "uint256"
        },
        {
          "internalType": "address payable",
          "name": "recipient",
          "type": "address"
        }
      ],
      "name": "createEmergencyProposal",
      "outputs": [
        {
          "internalType": "bytes32",
          "name": "",
          "type": "bytes32"
        }
      ],
      "stateMutability": "nonpayable",
      "type": "function"
    },
    {
      "inputs": [
        {
          "internalType": "string",
          "name": "title",
          "type": "string"
        },
        {
          "internalType": "string",
          "name": "description",
          "type": "string"
        },
        {
          "internalType": "uint256",
          "name": "amount",
          "type": "uint256"
        },
        {
          "internalType": "address payable",
          "name": "recipient",
          "type": "address"
        }
      ],
      "name": "createProposal",
      "outputs": [
        {
          "internalType": "bytes32",
          "name": "",
          "type": "bytes32"
        }
      ],
      "stateMutability": "nonpayable",
      "type": "function"
    },
    {
      "inputs": [],
      "name": "currentActiveProposals",
      "outputs": [
        {
          "internalType": "uint256",
          "name": "",
          "type": "uint256"
        }
      ],
      "stateMutability": "view",
      "type": "function"
    },
    {
      "inputs": [],
      "name": "emergencyVotingPeriod",
      "outputs": [
        {
          "internalType": "uint256",
          "name": "",
          "type": "uint256"
        }
      ],
      "stateMutability": "view",
      "type": "function"
    },
    {
      "inputs": [
        {
          "internalType": "bytes32",
          "name": "proposalId",
          "type": "bytes32"
        }
      ],
      "name": "executeProposal",
      "outputs": [],
      "stateMutability": "nonpayable",
      "type": "function"
    },
    {
      "inputs": [
        {
          "internalType": "bytes32",
          "name": "proposalId",
          "type": "bytes32"
        }
      ],
      "name": "finalizeProposal",
      "outputs": [],
      "stateMutability": "nonpayable",
      "type": "function"
    },
    {
      "inputs": [],
      "name": "getActiveProposals",
      "outputs": [
        {
          "internalType": "bytes32[]",
          "name": "",
          "type": "bytes32[]"
        }
      ],
      "stateMutability": "view",
      "type": "function"
    },
    {
      "inputs": [
        {
          "internalType": "bytes32",
          "name": "proposalId",
          "type": "bytes32"
        }
      ],
      "name": "getDynamicQuorum",
      "outputs": [
        {
          "internalType": "uint256",
          "name": "",
          "type": "uint256"
        }
      ],
      "stateMutability": "view",
      "type": "function"
    },
    {
      "inputs": [],
      "name": "getProposalCount",
      "outputs": [
        {
          "internalType": "uint256",
          "name": "",
          "type": "uint256"
        }
      ],
      "stateMutability": "view",
      "type": "function"
    },
    {
      "inputs": [
        {
          "internalType": "bytes32",
          "name": "proposalId",
          "type": "bytes32"
        }
      ],
      "name": "getProposalDetails",
      "outputs": [
        {
          "internalType": "string",
          "name": "title",
          "type": "string"
        },
        {
          "internalType": "string",
          "name": "description",
          "type": "string"
        },
        {
          "internalType": "uint256",
          "name": "amount",
          "type": "uint256"
        },
        {
          "internalType": "address",
          "name": "recipient",
          "type": "address"
        },
        {
          "internalType": "uint256",
          "name": "votesFor",
          "type": "uint256"
        },
        {
          "internalType": "uint256",
          "name": "votesAgainst",
          "type": "uint256"
        },
        {
          "internalType": "uint256",
          "name": "startTime",
          "type": "uint256"
        },
        {
          "internalType": "uint256",
          "name": "endTime",
          "type": "uint256"
        },
        {
          "internalType": "enum Governance.ProposalStatus",
          "name": "status",
          "type": "uint8"
        },
        {
          "internalType": "enum Governance.ProposalType",
          "name": "proposalType",
          "type": "uint8"
        }
      ],
      "stateMutability": "view",
      "type": "function"
    },
    {
      "inputs": [
        {
          "internalType": "bytes32",
          "name": "role",
          "type": "bytes32"
        }
      ],
      "name": "getRoleAdmin",
      "outputs": [
        {
          "internalType": "bytes32",
          "name": "",
          "type": "bytes32"
        }
      ],
      "stateMutability": "view",
      "type": "function"
    },
    {
      "inputs": [
        {
          "internalType": "bytes32",
          "name": "proposalId",
          "type": "bytes32"
        },
        {
          "internalType": "address",
          "name": "voter",
          "type": "address"
        }
      ],
      "name": "getVoteInfo",
      "outputs": [
        {
          "internalType": "uint8",
          "name": "support",
          "type": "uint8"
        },
        {
          "internalType": "uint256",
          "name": "weight",
          "type": "uint256"
        }
      ],
      "stateMutability": "view",
      "type": "function"
    },
    {
      "inputs": [
        {
          "internalType": "bytes32",
          "name": "role",
          "type": "bytes32"
        },
        {
          "internalType": "address",
          "name": "account",
          "type": "address"
        }
      ],
      "name": "grantRole",
      "outputs": [],
      "stateMutability": "nonpayable",
      "type": "function"
    },
    {
      "inputs": [
        {
          "internalType": "bytes32",
          "name": "role",
          "type": "bytes32"
        },
        {
          "internalType": "address",
          "name": "account",
          "type": "address"
        }
      ],
      "name": "hasRole",
      "outputs": [
        {
          "internalType": "bool",
          "name": "",
          "type": "bool"
        }
      ],
      "stateMutability": "view",
      "type": "function"
    },
    {
      "inputs": [],
      "name": "humaToken",
      "outputs": [
        {
          "internalType": "contract HumaToken",
          "name": "",
          "type": "address"
        }
      ],
      "stateMutability": "view",
      "type": "function"
    },
    {
      "inputs": [],
      "name": "maxActiveProposals",
      "outputs": [
        {
          "internalType": "uint256",
          "name": "",
          "type": "uint256"
        }
      ],
      "stateMutability": "view",
      "type": "function"
    },
    {
      "inputs": [],
      "name": "minDeliberationPeriod",
      "outputs": [
        {
          "internalType": "uint256",
          "name": "",
          "type": "uint256"
        }
      ],
      "stateMutability": "view",
      "type": "function"
    },
    {
      "inputs": [],
      "name": "proposalCount",
      "outputs": [
        {
          "internalType": "uint256",
          "name": "",
          "type": "uint256"
        }
      ],
      "stateMutability": "view",
      "type": "function"
    },
    {
      "inputs": [
        {
          "internalType": "uint256",
          "name": "",
          "type": "uint256"
        }
      ],
      "name": "proposalIds",
      "outputs": [
        {
          "internalType": "bytes32",
          "name": "",
          "type": "bytes32"
        }
      ],
      "stateMutability": "view",
      "type": "function"
    },
    {
      "inputs": [
        {
          "internalType": "bytes32",
          "name": "",
          "type": "bytes32"
        },
        {
          "internalType": "address",
          "name": "",
          "type": "address"
        }
      ],
      "name": "proposalVotes",
      "outputs": [
        {
          "internalType": "uint8",
          "name": "support",
          "type": "uint8"
        },
        {
          "internalType": "uint256",
          "name": "weight",
          "type": "uint256"
        }
      ],
      "stateMutability": "view",
      "type": "function"
    },
    {
      "inputs": [
        {
          "internalType": "bytes32",
          "name": "",
          "type": "bytes32"
        }
      ],
      "name": "proposals",
      "outputs": [
        {
          "internalType": "bytes32",
          "name": "id",
          "type": "bytes32"
        },
        {
          "internalType": "address",
          "name": "proposer",
          "type": "address"
        },
        {
          "internalType": "string",
          "name": "title",
          "type": "string"
        },
        {
          "internalType": "string",
          "name": "description",
          "type": "string"
        },
        {
          "internalType": "uint256",
          "name": "amount",
          "type": "uint256"
        },
        {
          "internalType": "address payable",
          "name": "recipient",
          "type": "address"
        },
        {
          "internalType": "uint256",
          "name": "votesFor",
          "type": "uint256"
        },
        {
          "internalType": "uint256",
          "name": "votesAgainst",
          "type": "uint256"
        },
        {
          "internalType": "uint256",
          "name": "startTime",
          "type": "uint256"
        },
        {
          "internalType": "uint256",
          "name": "endTime",
          "type": "uint256"
        },
        {
          "internalType": "enum Governance.ProposalStatus",
          "name": "status",
          "type": "uint8"
        },
        {
          "internalType": "enum Governance.ProposalType",
          "name": "proposalType",
          "type": "uint8"
        }
      ],
      "stateMutability": "view",
      "type": "function"
    },
    {
      "inputs": [
        {
          "internalType": "address",
          "name": "boardMember",
          "type": "address"
        }
      ],
      "name": "removeBoardMember",
      "outputs": [],
      "stateMutability": "nonpayable",
      "type": "function"
    },
    {
      "inputs": [
        {
          "internalType": "bytes32",
          "name": "role",
          "type": "bytes32"
        },
        {
          "internalType": "address",
          "name": "callerConfirmation",
          "type": "address"
        }
      ],
      "name": "renounceRole",
      "outputs": [],
      "stateMutability": "nonpayable",
      "type": "function"
    },
    {
      "inputs": [
        {
          "internalType": "bytes32",
          "name": "role",
          "type": "bytes32"
        },
        {
          "internalType": "address",
          "name": "account",
          "type": "address"
        }
      ],
      "name": "revokeRole",
      "outputs": [],
      "stateMutability": "nonpayable",
      "type": "function"
    },
    {
      "inputs": [],
      "name": "standardVotingPeriod",
      "outputs": [
        {
          "internalType": "uint256",
          "name": "",
          "type": "uint256"
        }
      ],
      "stateMutability": "view",
      "type": "function"
    },
    {
      "inputs": [
        {
          "internalType": "bytes4",
          "name": "interfaceId",
          "type": "bytes4"
        }
      ],
      "name": "supportsInterface",
      "outputs": [
        {
          "internalType": "bool",
          "name": "",
          "type": "bool"
        }
      ],
      "stateMutability": "view",
      "type": "function"
    },
    {
      "inputs": [
        {
          "internalType": "uint256",
          "name": "_newBaseQuorumPercentage",
          "type": "uint256"
        }
      ],
      "name": "updateBaseQuorum",
      "outputs": [],
      "stateMutability": "nonpayable",
      "type": "function"
    },
    {
      "inputs": [
        {
          "internalType": "uint256",
          "name": "_maxActiveProposals",
          "type": "uint256"
        }
      ],
      "name": "updateMaxActiveProposals",
      "outputs": [],
      "stateMutability": "nonpayable",
      "type": "function"
    },
    {
      "inputs": [
        {
          "internalType": "uint256",
          "name": "_newMinPeriod",
          "type": "uint256"
        }
      ],
      "name": "updateMinDeliberationPeriod",
      "outputs": [],
      "stateMutability": "nonpayable",
      "type": "function"
    },
    {
      "inputs": [
        {
          "internalType": "uint256",
          "name": "_standardPeriod",
          "type": "uint256"
        },
        {
          "internalType": "uint256",
          "name": "_emergencyPeriod",
          "type": "uint256"
        }
      ],
      "name": "updateVotingPeriods",
      "outputs": [],
      "stateMutability": "nonpayable",
      "type": "function"
    },
    {
      "inputs": [],
      "name": "vault",
      "outputs": [
        {
          "internalType": "contract Vault",
          "name": "",
          "type": "address"
        }
      ],
      "stateMutability": "view",
      "type": "function"
    },
    {
      "inputs": [
        {
          "internalType": "bytes32",
          "name": "proposalId",
          "type": "bytes32"
        },
        {
          "internalType": "string",
          "name": "reason",
          "type": "string"
        }
      ],
      "name": "vetoProposal",
      "outputs": [],
      "stateMutability": "nonpayable",
      "type": "function"
    }
  ],
  "bytecode": "0x60c060405262093a8060025562015180600355620151806004556101f4600555600a600655600060075534801561003557600080fd5b50604051615e37380380615e3783398181016040528101906100579190610626565b60018081905550600073ffffffffffffffffffffffffffffffffffffffff168373ffffffffffffffffffffffffffffffffffffffff16036100cd576040517f08c379a00000000000000000000000000000000000000000000000000000000081526004016100c490610718565b60405180910390fd5b600073ffffffffffffffffffffffffffffffffffffffff168273ffffffffffffffffffffffffffffffffffffffff160361013c576040517f08c379a0000000000000000000000000000000000000000000000000000000008152600401610133906107aa565b60405180910390fd5b8273ffffffffffffffffffffffffffffffffffffffff1660808173ffffffffffffffffffffffffffffffffffffffff16815250508173ffffffffffffffffffffffffffffffffffffffff1660a08173ffffffffffffffffffffffffffffffffffffffff16815250506101b76000801b336102ae60201b60201c565b5060005b81518110156102a557600073ffffffffffffffffffffffffffffffffffffffff168282815181106101ef576101ee6107ca565b5b602002602001015173ffffffffffffffffffffffffffffffffffffffff160361024d576040517f08c379a00000000000000000000000000000000000000000000000000000000081526004016102449061086b565b60405180910390fd5b6102977f0182a37f4cfe4a11c9cc13af6a96350bc084bedfd41df0928670dbabcfe3aea1838381518110610284576102836107ca565b5b60200260200101516102ae60201b60201c565b5080806001019150506101bb565b5050505061088b565b60006102c083836103ab60201b60201c565b6103a057600160008085815260200190815260200160002060000160008473ffffffffffffffffffffffffffffffffffffffff1673ffffffffffffffffffffffffffffffffffffffff16815260200190815260200160002060006101000a81548160ff02191690831515021790555061033d61041560201b60201c565b73ffffffffffffffffffffffffffffffffffffffff168273ffffffffffffffffffffffffffffffffffffffff16847f2f8788117e7eff1d82e926ec794901d17c78024a50270940304540a733656f0d60405160405180910390a4600190506103a5565b600090505b92915050565b600080600084815260200190815260200160002060000160008373ffffffffffffffffffffffffffffffffffffffff1673ffffffffffffffffffffffffffffffffffffffff16815260200190815260200160002060009054906101000a900460ff16905092915050565b600033905090565b6000604051905090565b600080fd5b600080fd5b600073ffffffffffffffffffffffffffffffffffffffff82169050919050565b600061045c82610431565b9050919050565b61046c81610451565b811461047757600080fd5b50565b60008151905061048981610463565b92915050565b600061049a82610431565b9050919050565b6104aa8161048f565b81146104b557600080fd5b50565b6000815190506104c7816104a1565b92915050565b600080fd5b6000601f19601f8301169050919050565b7f4e487b7100000000000000000000000000000000000000000000000000000000600052604160045260246000fd5b61051b826104d2565b810181811067ffffffffffffffff8211171561053a576105396104e3565b5b80604052505050565b600061054d61041d565b90506105598282610512565b919050565b600067ffffffffffffffff821115610579576105786104e3565b5b602082029050602081019050919050565b600080fd5b60006105a261059d8461055e565b610543565b905080838252602082019050602084028301858111156105c5576105c461058a565b5b835b818110156105ee57806105da888261047a565b8452602084019350506020810190506105c7565b5050509392505050565b600082601f83011261060d5761060c6104cd565b5b815161061d84826020860161058f565b91505092915050565b60008060006060848603121561063f5761063e610427565b5b600061064d8682870161047a565b935050602061065e868287016104b8565b925050604084015167ffffffffffffffff81111561067f5761067e61042c565b5b61068b868287016105f8565b9150509250925092565b600082825260208201905092915050565b7f476f7665726e616e63653a20746f6b656e20616464726573732063616e6e6f7460008201527f206265207a65726f000000000000000000000000000000000000000000000000602082015250565b6000610702602883610695565b915061070d826106a6565b604082019050919050565b60006020820190508181036000830152610731816106f5565b9050919050565b7f476f7665726e616e63653a207661756c7420616464726573732063616e6e6f7460008201527f206265207a65726f000000000000000000000000000000000000000000000000602082015250565b6000610794602883610695565b915061079f82610738565b604082019050919050565b600060208201905081810360008301526107c381610787565b9050919050565b7f4e487b7100000000000000000000000000000000000000000000000000000000600052603260045260246000fd5b7f476f7665726e616e63653a20626f617264206d656d6265722063616e6e6f742060008201527f6265207a65726f20616464726573730000000000000000000000000000000000602082015250565b6000610855602f83610695565b9150610860826107f9565b604082019050919050565b6000602082019050818103600083015261088481610848565b9050919050565b60805160a0516155486108ef6000396000818161098401528181611ded0152818161225e015281816126d5015281816128cc0152612e9e015260008181610fb7015281816111df015281816115e7015281816117d3015261199401526155486000f3fe608060405234801561001057600080fd5b50600436106102325760003560e01c806371ae61ca11610130578063d547741f116100b8578063e30985471161007c578063e309854714610697578063e5ee89cc146106b3578063e801134c146106e3578063f09951981461071c578063fbfa77cf1461074d57610232565b8063d547741f146105f1578063da35c6641461060d578063df156ea61461062b578063dfb4d9db14610649578063e04503531461067957610232565b8063980ff6c6116100ff578063980ff6c61461054d5780639a342523146105695780639b644a2314610585578063a217fddf146105b5578063c08cc02d146105d357610232565b806371ae61ca146104c75780637f9a849b146104e357806391d148541461050157806393fc4bf61461053157610232565b806332ed5b12116101be5780634ede4558116101825780634ede4558146104205780635584c4f91461043e57806364bed1551461045c5780636577ef681461048d5780636fc42b36146104ab57610232565b806332ed5b121461037557806336568abe146103b057806339a169f9146103cc578063430f37ec146103e857806347d0da141461040457610232565b8063113fabb911610205578063113fabb9146102bf57806318b62629146102ef5780631eac03ae1461030d578063248a9ca3146103295780632f2ff15d1461035957610232565b806301ffc9a714610237578063045ef73f1461026757806305b11d3714610285578063067e42e7146102a3575b600080fd5b610251600480360381019061024c9190613235565b61076b565b60405161025e919061327d565b60405180910390f35b61026f6107e5565b60405161027c91906132b1565b60405180910390f35b61028d6107eb565b60405161029a91906132e5565b60405180910390f35b6102bd60048036038101906102b89190613365565b61080f565b005b6102d960048036038101906102d491906133de565b610968565b6040516102e691906132b1565b60405180910390f35b6102f7610ac9565b60405161030491906132b1565b60405180910390f35b61032760048036038101906103229190613469565b610acf565b005b610343600480360381019061033e91906133de565b610be4565b60405161035091906132e5565b60405180910390f35b610373600480360381019061036e9190613496565b610c03565b005b61038f600480360381019061038a91906133de565b610c25565b6040516103a79c9b9a99989796959493929190613655565b60405180910390f35b6103ca60048036038101906103c59190613496565b610def565b005b6103e660048036038101906103e19190613469565b610e6a565b005b61040260048036038101906103fd9190613749565b610f0f565b005b61041e600480360381019061041991906133de565b610fab565b005b61042861140c565b60405161043591906132b1565b60405180910390f35b610446611412565b6040516104539190613834565b60405180910390f35b61047660048036038101906104719190613496565b61156b565b604051610484929190613872565b60405180910390f35b6104956115e5565b6040516104a291906138fa565b60405180910390f35b6104c560048036038101906104c09190613941565b611609565b005b6104e160048036038101906104dc9190613749565b611a7e565b005b6104eb611b28565b6040516104f891906132b1565b60405180910390f35b61051b60048036038101906105169190613496565b611b2e565b604051610528919061327d565b60405180910390f35b61054b60048036038101906105469190613ac4565b611b98565b005b610567600480360381019061056291906133de565b611d27565b005b610583600480360381019061057e9190613b20565b611ef2565b005b61059f600480360381019061059a9190613749565b6120a4565b6040516105ac91906132e5565b60405180910390f35b6105bd6120c8565b6040516105ca91906132e5565b60405180910390f35b6105db6120cf565b6040516105e891906132b1565b60405180910390f35b61060b60048036038101906106069190613496565b6120dc565b005b6106156120fe565b60405161062291906132b1565b60405180910390f35b610633612104565b60405161064091906132b1565b60405180910390f35b610663600480360381019061065e9190613b8c565b61210a565b60405161067091906132e5565b60405180910390f35b610681612627565b60405161068e91906132b1565b60405180910390f35b6106b160048036038101906106ac9190613749565b61262d565b005b6106cd60048036038101906106c89190613b8c565b6126c9565b6040516106da91906132e5565b60405180910390f35b6106fd60048036038101906106f891906133de565b612c94565b6040516107139a99989796959493929190613c2b565b60405180910390f35b61073660048036038101906107319190613496565b612e5e565b604051610744929190613872565b60405180910390f35b610755612e9c565b6040516107629190613d08565b60405180910390f35b60007f7965db0b000000000000000000000000000000000000000000000000000000007bffffffffffffffffffffffffffffffffffffffffffffffffffffffff1916827bffffffffffffffffffffffffffffffffffffffffffffffffffffffff191614806107de57506107dd82612ec0565b5b9050919050565b60075481565b7f0182a37f4cfe4a11c9cc13af6a96350bc084bedfd41df0928670dbabcfe3aea181565b610817612f2a565b60005b8282905081101561095b5760006008600085858581811061083e5761083d613d23565b5b90506020020135815260200190815260200160002090506000600581111561086957610868613596565b5b81600a0160009054906101000a900460ff16600581111561088d5761088c613596565b5b14801561089d5750806009015442115b80156108bc57506000816007015482600601546108ba9190613d81565b145b1561094d57600581600a0160006101000a81548160ff021916908360058111156108e9576108e8613596565b5b02179055506007600081548092919061090190613db5565b919050555083838381811061091957610918613d23565b5b905060200201357f58f98006a7f2f253f8ae8f8b7cec9008ca05359633561cd7c22f3005682d4a5560405160405180910390a25b50808060010191505061081a565b50610964612f70565b5050565b60008060086000848152602001908152602001600020905060007f000000000000000000000000000000000000000000000000000000000000000073ffffffffffffffffffffffffffffffffffffffff1663ed12e8ef6040518163ffffffff1660e01b8152600401602060405180830381865afa1580156109ed573d6000803e3d6000fd5b505050506040513d601f19601f82011682018060405250810190610a119190613df3565b905060008103610a275760055492505050610ac4565b6000816127108460040154610a3c9190613e20565b610a469190613e91565b90506103e8811015610a5f576005549350505050610ac4565b610bb8811015610a8d57600a81610a769190613e91565b600554610a839190613d81565b9350505050610ac4565b611388811015610abb57600581610aa49190613e91565b600554610ab19190613d81565b9350505050610ac4565b610bb893505050505b919050565b60035481565b6000801b610adc81612f79565b600073ffffffffffffffffffffffffffffffffffffffff168273ffffffffffffffffffffffffffffffffffffffff1603610b4b576040517f08c379a0000000000000000000000000000000000000000000000000000000008152600401610b4290613f0e565b60405180910390fd5b610b757f0182a37f4cfe4a11c9cc13af6a96350bc084bedfd41df0928670dbabcfe3aea183611b2e565b15610bb5576040517f08c379a0000000000000000000000000000000000000000000000000000000008152600401610bac90613fa0565b60405180910390fd5b610bdf7f0182a37f4cfe4a11c9cc13af6a96350bc084bedfd41df0928670dbabcfe3aea183612f8d565b505050565b6000806000838152602001908152602001600020600101549050919050565b610c0c82610be4565b610c1581612f79565b610c1f8383612f8d565b50505050565b60086020528060005260406000206000915090508060000154908060010160009054906101000a900473ffffffffffffffffffffffffffffffffffffffff1690806002018054610c7490613fef565b80601f0160208091040260200160405190810160405280929190818152602001828054610ca090613fef565b8015610ced5780601f10610cc257610100808354040283529160200191610ced565b820191906000526020600020905b815481529060010190602001808311610cd057829003601f168201915b505050505090806003018054610d0290613fef565b80601f0160208091040260200160405190810160405280929190818152602001828054610d2e90613fef565b8015610d7b5780601f10610d5057610100808354040283529160200191610d7b565b820191906000526020600020905b815481529060010190602001808311610d5e57829003601f168201915b5050505050908060040154908060050160009054906101000a900473ffffffffffffffffffffffffffffffffffffffff169080600601549080600701549080600801549080600901549080600a0160009054906101000a900460ff169080600a0160019054906101000a900460ff1690508c565b610df761307e565b73ffffffffffffffffffffffffffffffffffffffff168173ffffffffffffffffffffffffffffffffffffffff1614610e5b576040517f6697b23200000000000000000000000000000000000000000000000000000000815260040160405180910390fd5b610e658282613086565b505050565b6000801b610e7781612f79565b610ea17f0182a37f4cfe4a11c9cc13af6a96350bc084bedfd41df0928670dbabcfe3aea183611b2e565b610ee0576040517f08c379a0000000000000000000000000000000000000000000000000000000008152600401610ed79061406c565b60405180910390fd5b610f0a7f0182a37f4cfe4a11c9cc13af6a96350bc084bedfd41df0928670dbabcfe3aea183613086565b505050565b6000801b610f1c81612f79565b60008211610f5f576040517f08c379a0000000000000000000000000000000000000000000000000000000008152600401610f56906140fe565b60405180910390fd5b60006004549050826004819055507f1a9ada133184781eb4ca4b1b8475026f56a22012c5ffc1ace3ee49cd19b0ea6c8184604051610f9e92919061411e565b60405180910390a1505050565b610fb3612f2a565b60007f000000000000000000000000000000000000000000000000000000000000000073ffffffffffffffffffffffffffffffffffffffff166318160ddd6040518163ffffffff1660e01b8152600401602060405180830381865afa158015611020573d6000803e3d6000fd5b505050506040513d601f19601f820116820180604052508101906110449190613df3565b11611084576040517f08c379a000000000000000000000000000000000000000000000000000000000815260040161107b906141b9565b60405180910390fd5b6000600860008381526020019081526020016000209050600060058111156110af576110ae613596565b5b81600a0160009054906101000a900460ff1660058111156110d3576110d2613596565b5b14611113576040517f08c379a000000000000000000000000000000000000000000000000000000000815260040161110a9061424b565b60405180910390fd5b60045481600801546111259190613d81565b421015611167576040517f08c379a000000000000000000000000000000000000000000000000000000000815260040161115e906142dd565b60405180910390fd5b6000816009015442119050806111b2576040517f08c379a00000000000000000000000000000000000000000000000000000000081526004016111a99061436f565b60405180910390fd5b6000826007015483600601546111c89190613d81565b905060006111d585610968565b90506000612710827f000000000000000000000000000000000000000000000000000000000000000073ffffffffffffffffffffffffffffffffffffffff166318160ddd6040518163ffffffff1660e01b8152600401602060405180830381865afa158015611248573d6000803e3d6000fd5b505050506040513d601f19601f8201168201806040525081019061126c9190613df3565b6112769190613e20565b6112809190613e91565b90508083101561131e57600285600a0160006101000a81548160ff021916908360058111156112b2576112b1613596565b5b0217905550600760008154809291906112ca90613db5565b9190505550857f637aac1dc8ee914d7ef92766036df7c049f5b85be012bc541cd378de8b5cc1d060028760060154886007015460405161130c9392919061438f565b60405180910390a25050505050611401565b84600701548560060154111561136057600185600a0160006101000a81548160ff0219169083600581111561135657611355613596565b5b021790555061138e565b600285600a0160006101000a81548160ff0219169083600581111561138857611387613596565b5b02179055505b600760008154809291906113a190613db5565b9190505550857f637aac1dc8ee914d7ef92766036df7c049f5b85be012bc541cd378de8b5cc1d086600a0160009054906101000a900460ff16876006015488600701546040516113f39392919061438f565b60405180910390a250505050505b611409612f70565b50565b60025481565b6060600060075467ffffffffffffffff81111561143257611431613999565b5b6040519080825280602002602001820160405280156114605781602001602082028036833780820191505090505b5090506000600754036114765780915050611568565b6000805b600a805490508110801561148f575060075482105b1561156157600060058111156114a8576114a7613596565b5b60086000600a84815481106114c0576114bf613d23565b5b90600052602060002001548152602001908152602001600020600a0160009054906101000a900460ff1660058111156114fc576114fb613596565b5b0361154e57600a818154811061151557611514613d23565b5b906000526020600020015483838151811061153357611532613d23565b5b602002602001018181525050818061154a906143c6565b9250505b8080611559906143c6565b91505061147a565b5081925050505b90565b60008060006009600086815260200190815260200160002060008573ffffffffffffffffffffffffffffffffffffffff1673ffffffffffffffffffffffffffffffffffffffff16815260200190815260200160002090508060000160009054906101000a900460ff16816001015492509250509250929050565b7f000000000000000000000000000000000000000000000000000000000000000081565b611611612f2a565b60006008600085815260200190815260200160002090506000600581111561163c5761163b613596565b5b81600a0160009054906101000a900460ff1660058111156116605761165f613596565b5b146116a0576040517f08c379a00000000000000000000000000000000000000000000000000000000081526004016116979061424b565b60405180910390fd5b80600901544211156116e7576040517f08c379a00000000000000000000000000000000000000000000000000000000081526004016116de90614480565b60405180910390fd5b60006009600086815260200190815260200160002060003373ffffffffffffffffffffffffffffffffffffffff1673ffffffffffffffffffffffffffffffffffffffff16815260200190815260200160002060000160009054906101000a900460ff1660ff161461178d576040517f08c379a000000000000000000000000000000000000000000000000000000000815260040161178490614512565b60405180910390fd5b600082116117d0576040517f08c379a00000000000000000000000000000000000000000000000000000000081526004016117c7906145a4565b60405180910390fd5b817f000000000000000000000000000000000000000000000000000000000000000073ffffffffffffffffffffffffffffffffffffffff166370a08231336040518263ffffffff1660e01b815260040161182a91906145c4565b602060405180830381865afa158015611847573d6000803e3d6000fd5b505050506040513d601f19601f8201168201806040525081019061186b9190613df3565b10156118ac576040517f08c379a00000000000000000000000000000000000000000000000000000000081526004016118a390614651565b60405180910390fd5b6040518060400160405280846118c35760026118c6565b60015b60ff168152602001838152506009600086815260200190815260200160002060003373ffffffffffffffffffffffffffffffffffffffff1673ffffffffffffffffffffffffffffffffffffffff16815260200190815260200160002060008201518160000160006101000a81548160ff021916908360ff160217905550602082015181600101559050508215611976578181600601600082825461196a9190613d81565b92505081905550611992565b8181600701600082825461198a9190613d81565b925050819055505b7f000000000000000000000000000000000000000000000000000000000000000073ffffffffffffffffffffffffffffffffffffffff166379cc679033846040518363ffffffff1660e01b81526004016119ed929190614671565b600060405180830381600087803b158015611a0757600080fd5b505af1158015611a1b573d6000803e3d6000fd5b505050503373ffffffffffffffffffffffffffffffffffffffff16847f9bc1d007e9f894b0900fab4b7e20029267e704c85851e5470c30a1e1b239e0908585604051611a6892919061469a565b60405180910390a350611a79612f70565b505050565b6000801b611a8b81612f79565b600082118015611a9d5750610bb88211155b611adc576040517f08c379a0000000000000000000000000000000000000000000000000000000008152600401611ad390614735565b60405180910390fd5b60006005549050826005819055507f291f1a450d7d9c615f86c5cd5fe7b86ccaee5c1e5af67d4c646018b0617ede2c8184604051611b1b92919061411e565b60405180910390a1505050565b60045481565b600080600084815260200190815260200160002060000160008373ffffffffffffffffffffffffffffffffffffffff1673ffffffffffffffffffffffffffffffffffffffff16815260200190815260200160002060009054906101000a900460ff16905092915050565b7f0182a37f4cfe4a11c9cc13af6a96350bc084bedfd41df0928670dbabcfe3aea1611bc281612f79565b611bca612f2a565b600060086000858152602001908152602001600020905060016005811115611bf557611bf4613596565b5b81600a0160009054906101000a900460ff166005811115611c1957611c18613596565b5b14611c59576040517f08c379a0000000000000000000000000000000000000000000000000000000008152600401611c50906147c7565b60405180910390fd5b6000835111611c9d576040517f08c379a0000000000000000000000000000000000000000000000000000000008152600401611c9490614859565b60405180910390fd5b600481600a0160006101000a81548160ff02191690836005811115611cc557611cc4613596565b5b02179055503373ffffffffffffffffffffffffffffffffffffffff16847f550a2a102029a432a50f096dc331b80253ce86b8fde899b4e1fb59022485362885604051611d119190614879565b60405180910390a350611d22612f70565b505050565b611d2f612f2a565b600060086000838152602001908152602001600020905060016005811115611d5a57611d59613596565b5b81600a0160009054906101000a900460ff166005811115611d7e57611d7d613596565b5b14611dbe576040517f08c379a0000000000000000000000000000000000000000000000000000000008152600401611db5906147c7565b60405180910390fd5b600381600a0160006101000a81548160ff02191690836005811115611de657611de5613596565b5b02179055507f000000000000000000000000000000000000000000000000000000000000000073ffffffffffffffffffffffffffffffffffffffff16638be434738260050160009054906101000a900473ffffffffffffffffffffffffffffffffffffffff168360040154856040518463ffffffff1660e01b8152600401611e709392919061489b565b600060405180830381600087803b158015611e8a57600080fd5b505af1158015611e9e573d6000803e3d6000fd5b505050503373ffffffffffffffffffffffffffffffffffffffff16827ff20459f0cd23ff5b3028bc90ea400293e55b573e4e60f3b01e45325428994ee160405160405180910390a350611eef612f70565b50565b6000801b611eff81612f79565b62015180831015611f45576040517f08c379a0000000000000000000000000000000000000000000000000000000008152600401611f3c90614944565b60405180910390fd5b613840821015611f8a576040517f08c379a0000000000000000000000000000000000000000000000000000000008152600401611f81906149d6565b60405180910390fd5b818311611fcc576040517f08c379a0000000000000000000000000000000000000000000000000000000008152600401611fc390614a68565b60405180910390fd5b62278d00831115612012576040517f08c379a000000000000000000000000000000000000000000000000000000000815260040161200990614afa565b60405180910390fd5b62093a80821115612058576040517f08c379a000000000000000000000000000000000000000000000000000000000815260040161204f90614b8c565b60405180910390fd5b82600281905550816003819055507fffc708f072ca56e3d45ef0cb288b96cb9378f5f63e1646868bfbc9c38f4263a1838360405161209792919061411e565b60405180910390a1505050565b600a81815481106120b457600080fd5b906000526020600020016000915090505481565b6000801b81565b6000600a80549050905090565b6120e582610be4565b6120ee81612f79565b6120f88383613086565b50505050565b600b5481565b60055481565b60007f0182a37f4cfe4a11c9cc13af6a96350bc084bedfd41df0928670dbabcfe3aea161213681612f79565b61213e612f2a565b6000865111612182576040517f08c379a000000000000000000000000000000000000000000000000000000000815260040161217990614c1e565b60405180910390fd5b60008551116121c6576040517f08c379a00000000000000000000000000000000000000000000000000000000081526004016121bd90614cb0565b60405180910390fd5b60648651111561220b576040517f08c379a000000000000000000000000000000000000000000000000000000000815260040161220290614d1c565b60405180910390fd5b6103e885511115612251576040517f08c379a000000000000000000000000000000000000000000000000000000000815260040161224890614d88565b60405180910390fd5b6000841180156122ef57507f000000000000000000000000000000000000000000000000000000000000000073ffffffffffffffffffffffffffffffffffffffff1663ed12e8ef6040518163ffffffff1660e01b8152600401602060405180830381865afa1580156122c7573d6000803e3d6000fd5b505050506040513d601f19601f820116820180604052508101906122eb9190613df3565b8411155b61232e576040517f08c379a000000000000000000000000000000000000000000000000000000000815260040161232590614df4565b60405180910390fd5b600073ffffffffffffffffffffffffffffffffffffffff168373ffffffffffffffffffffffffffffffffffffffff160361239d576040517f08c379a000000000000000000000000000000000000000000000000000000000815260040161239490614e86565b60405180910390fd5b600654600754106123e3576040517f08c379a00000000000000000000000000000000000000000000000000000000081526004016123da90614f18565b60405180910390fd5b6000334288600b546040516020016123fe9493929190615029565b6040516020818303038152906040528051906020012090506000600860008381526020019081526020016000209050818160000181905550338160010160006101000a81548173ffffffffffffffffffffffffffffffffffffffff021916908373ffffffffffffffffffffffffffffffffffffffff1602179055508781600201908161248a9190615220565b508681600301908161249c9190615220565b50858160040181905550848160050160006101000a81548173ffffffffffffffffffffffffffffffffffffffff021916908373ffffffffffffffffffffffffffffffffffffffff160217905550428160080181905550600354426125009190613d81565b8160090181905550600081600a0160006101000a81548160ff021916908360058111156125305761252f613596565b5b0217905550600181600a0160016101000a81548160ff0219169083600181111561255d5761255c613596565b5b0217905550600a829080600181540180825580915050600190039060005260206000200160009091909190915055600b600081548092919061259e906143c6565b9190505550600760008154809291906125b6906143c6565b91905055503373ffffffffffffffffffffffffffffffffffffffff16827f58139a88fa760f9d20ecdaa5152b66fdf9adef8690cd1c4c0d64d1aebcf793388a898960016040516126099493929190615313565b60405180910390a3819350505061261e612f70565b50949350505050565b60065481565b6000801b61263a81612f79565b6000821161267d576040517f08c379a0000000000000000000000000000000000000000000000000000000008152600401612674906153ab565b60405180910390fd5b60006006549050826006819055507fd9665cd36fcea25264ae07ce27b4562b1c12ef8d06d208c0e9e70274bd86d82681846040516126bc92919061411e565b60405180910390a1505050565b60006126d3612f2a565b7f000000000000000000000000000000000000000000000000000000000000000073ffffffffffffffffffffffffffffffffffffffff16633a358a99336040518263ffffffff1660e01b815260040161272c91906145c4565b602060405180830381865afa158015612749573d6000803e3d6000fd5b505050506040513d601f19601f8201168201806040525081019061276d91906153e0565b6127ac576040517f08c379a00000000000000000000000000000000000000000000000000000000081526004016127a39061547f565b60405180910390fd5b60008551116127f0576040517f08c379a00000000000000000000000000000000000000000000000000000000081526004016127e790614c1e565b60405180910390fd5b6000845111612834576040517f08c379a000000000000000000000000000000000000000000000000000000000815260040161282b90614cb0565b60405180910390fd5b606485511115612879576040517f08c379a000000000000000000000000000000000000000000000000000000000815260040161287090614d1c565b60405180910390fd5b6103e8845111156128bf576040517f08c379a00000000000000000000000000000000000000000000000000000000081526004016128b690614d88565b60405180910390fd5b60008311801561295d57507f000000000000000000000000000000000000000000000000000000000000000073ffffffffffffffffffffffffffffffffffffffff1663ed12e8ef6040518163ffffffff1660e01b8152600401602060405180830381865afa158015612935573d6000803e3d6000fd5b505050506040513d601f19601f820116820180604052508101906129599190613df3565b8311155b61299c576040517f08c379a000000000000000000000000000000000000000000000000000000000815260040161299390614df4565b60405180910390fd5b600073ffffffffffffffffffffffffffffffffffffffff168273ffffffffffffffffffffffffffffffffffffffff1603612a0b576040517f08c379a0000000000000000000000000000000000000000000000000000000008152600401612a0290614e86565b60405180910390fd5b60065460075410612a51576040517f08c379a0000000000000000000000000000000000000000000000000000000008152600401612a4890614f18565b60405180910390fd5b6000334287600b54604051602001612a6c949392919061549f565b6040516020818303038152906040528051906020012090506000600860008381526020019081526020016000209050818160000181905550338160010160006101000a81548173ffffffffffffffffffffffffffffffffffffffff021916908373ffffffffffffffffffffffffffffffffffffffff16021790555086816002019081612af89190615220565b5085816003019081612b0a9190615220565b50848160040181905550838160050160006101000a81548173ffffffffffffffffffffffffffffffffffffffff021916908373ffffffffffffffffffffffffffffffffffffffff16021790555042816008018190555060025442612b6e9190613d81565b8160090181905550600081600a0160006101000a81548160ff02191690836005811115612b9e57612b9d613596565b5b0217905550600081600a0160016101000a81548160ff02191690836001811115612bcb57612bca613596565b5b0217905550600a829080600181540180825580915050600190039060005260206000200160009091909190915055600b6000815480929190612c0c906143c6565b919050555060076000815480929190612c24906143c6565b91905055503373ffffffffffffffffffffffffffffffffffffffff16827f58139a88fa760f9d20ecdaa5152b66fdf9adef8690cd1c4c0d64d1aebcf793388988886000604051612c779493929190615313565b60405180910390a38192505050612c8c612f70565b949350505050565b6060806000806000806000806000806000600860008d81526020019081526020016000209050806002018160030182600401548360050160009054906101000a900473ffffffffffffffffffffffffffffffffffffffff16846006015485600701548660080154876009015488600a0160009054906101000a900460ff1689600a0160019054906101000a900460ff16898054612d3090613fef565b80601f0160208091040260200160405190810160405280929190818152602001828054612d5c90613fef565b8015612da95780601f10612d7e57610100808354040283529160200191612da9565b820191906000526020600020905b815481529060010190602001808311612d8c57829003601f168201915b50505050509950888054612dbc90613fef565b80601f0160208091040260200160405190810160405280929190818152602001828054612de890613fef565b8015612e355780601f10612e0a57610100808354040283529160200191612e35565b820191906000526020600020905b815481529060010190602001808311612e1857829003601f168201915b505050505098509a509a509a509a509a509a509a509a509a509a50509193959799509193959799565b6009602052816000526040600020602052806000526040600020600091509150508060000160009054906101000a900460ff16908060010154905082565b7f000000000000000000000000000000000000000000000000000000000000000081565b60007f01ffc9a7000000000000000000000000000000000000000000000000000000007bffffffffffffffffffffffffffffffffffffffffffffffffffffffff1916827bffffffffffffffffffffffffffffffffffffffffffffffffffffffff1916149050919050565b600260015403612f66576040517f3ee5aeb500000000000000000000000000000000000000000000000000000000815260040160405180910390fd5b6002600181905550565b60018081905550565b612f8a81612f8561307e565b613178565b50565b6000612f998383611b2e565b61307357600160008085815260200190815260200160002060000160008473ffffffffffffffffffffffffffffffffffffffff1673ffffffffffffffffffffffffffffffffffffffff16815260200190815260200160002060006101000a81548160ff02191690831515021790555061301061307e565b73ffffffffffffffffffffffffffffffffffffffff168273ffffffffffffffffffffffffffffffffffffffff16847f2f8788117e7eff1d82e926ec794901d17c78024a50270940304540a733656f0d60405160405180910390a460019050613078565b600090505b92915050565b600033905090565b60006130928383611b2e565b1561316d57600080600085815260200190815260200160002060000160008473ffffffffffffffffffffffffffffffffffffffff1673ffffffffffffffffffffffffffffffffffffffff16815260200190815260200160002060006101000a81548160ff02191690831515021790555061310a61307e565b73ffffffffffffffffffffffffffffffffffffffff168273ffffffffffffffffffffffffffffffffffffffff16847ff6391f5c32d9c69d2a47ea670b442974b53935d1edc7fd64eb21e047a839171b60405160405180910390a460019050613172565b600090505b92915050565b6131828282611b2e565b6131c55780826040517fe2517d3f0000000000000000000000000000000000000000000000000000000081526004016131bc9291906154e9565b60405180910390fd5b5050565b6000604051905090565b600080fd5b600080fd5b60007fffffffff0000000000000000000000000000000000000000000000000000000082169050919050565b613212816131dd565b811461321d57600080fd5b50565b60008135905061322f81613209565b92915050565b60006020828403121561324b5761324a6131d3565b5b600061325984828501613220565b91505092915050565b60008115159050919050565b61327781613262565b82525050565b6000602082019050613292600083018461326e565b92915050565b6000819050919050565b6132ab81613298565b82525050565b60006020820190506132c660008301846132a2565b92915050565b6000819050919050565b6132df816132cc565b82525050565b60006020820190506132fa60008301846132d6565b92915050565b600080fd5b600080fd5b600080fd5b60008083601f84011261332557613324613300565b5b8235905067ffffffffffffffff81111561334257613341613305565b5b60208301915083602082028301111561335e5761335d61330a565b5b9250929050565b6000806020838503121561337c5761337b6131d3565b5b600083013567ffffffffffffffff81111561339a576133996131d8565b5b6133a68582860161330f565b92509250509250929050565b6133bb816132cc565b81146133c657600080fd5b50565b6000813590506133d8816133b2565b92915050565b6000602082840312156133f4576133f36131d3565b5b6000613402848285016133c9565b91505092915050565b600073ffffffffffffffffffffffffffffffffffffffff82169050919050565b60006134368261340b565b9050919050565b6134468161342b565b811461345157600080fd5b50565b6000813590506134638161343d565b92915050565b60006020828403121561347f5761347e6131d3565b5b600061348d84828501613454565b91505092915050565b600080604083850312156134ad576134ac6131d3565b5b60006134bb858286016133c9565b92505060206134cc85828601613454565b9150509250929050565b6134df8161342b565b82525050565b600081519050919050565b600082825260208201905092915050565b60005b8381101561351f578082015181840152602081019050613504565b60008484015250505050565b6000601f19601f8301169050919050565b6000613547826134e5565b61355181856134f0565b9350613561818560208601613501565b61356a8161352b565b840191505092915050565b60006135808261340b565b9050919050565b61359081613575565b82525050565b7f4e487b7100000000000000000000000000000000000000000000000000000000600052602160045260246000fd5b600681106135d6576135d5613596565b5b50565b60008190506135e7826135c5565b919050565b60006135f7826135d9565b9050919050565b613607816135ec565b82525050565b6002811061361e5761361d613596565b5b50565b600081905061362f8261360d565b919050565b600061363f82613621565b9050919050565b61364f81613634565b82525050565b60006101808201905061366b600083018f6132d6565b613678602083018e6134d6565b818103604083015261368a818d61353c565b9050818103606083015261369e818c61353c565b90506136ad608083018b6132a2565b6136ba60a083018a613587565b6136c760c08301896132a2565b6136d460e08301886132a2565b6136e26101008301876132a2565b6136f06101208301866132a2565b6136fe6101408301856135fe565b61370c610160830184613646565b9d9c50505050505050505050505050565b61372681613298565b811461373157600080fd5b50565b6000813590506137438161371d565b92915050565b60006020828403121561375f5761375e6131d3565b5b600061376d84828501613734565b91505092915050565b600081519050919050565b600082825260208201905092915050565b6000819050602082019050919050565b6137ab816132cc565b82525050565b60006137bd83836137a2565b60208301905092915050565b6000602082019050919050565b60006137e182613776565b6137eb8185613781565b93506137f683613792565b8060005b8381101561382757815161380e88826137b1565b9750613819836137c9565b9250506001810190506137fa565b5085935050505092915050565b6000602082019050818103600083015261384e81846137d6565b905092915050565b600060ff82169050919050565b61386c81613856565b82525050565b60006040820190506138876000830185613863565b61389460208301846132a2565b9392505050565b6000819050919050565b60006138c06138bb6138b68461340b565b61389b565b61340b565b9050919050565b60006138d2826138a5565b9050919050565b60006138e4826138c7565b9050919050565b6138f4816138d9565b82525050565b600060208201905061390f60008301846138eb565b92915050565b61391e81613262565b811461392957600080fd5b50565b60008135905061393b81613915565b92915050565b60008060006060848603121561395a576139596131d3565b5b6000613968868287016133c9565b93505060206139798682870161392c565b925050604061398a86828701613734565b9150509250925092565b600080fd5b7f4e487b7100000000000000000000000000000000000000000000000000000000600052604160045260246000fd5b6139d18261352b565b810181811067ffffffffffffffff821117156139f0576139ef613999565b5b80604052505050565b6000613a036131c9565b9050613a0f82826139c8565b919050565b600067ffffffffffffffff821115613a2f57613a2e613999565b5b613a388261352b565b9050602081019050919050565b82818337600083830152505050565b6000613a67613a6284613a14565b6139f9565b905082815260208101848484011115613a8357613a82613994565b5b613a8e848285613a45565b509392505050565b600082601f830112613aab57613aaa613300565b5b8135613abb848260208601613a54565b91505092915050565b60008060408385031215613adb57613ada6131d3565b5b6000613ae9858286016133c9565b925050602083013567ffffffffffffffff811115613b0a57613b096131d8565b5b613b1685828601613a96565b9150509250929050565b60008060408385031215613b3757613b366131d3565b5b6000613b4585828601613734565b9250506020613b5685828601613734565b9150509250929050565b613b6981613575565b8114613b7457600080fd5b50565b600081359050613b8681613b60565b92915050565b60008060008060808587031215613ba657613ba56131d3565b5b600085013567ffffffffffffffff811115613bc457613bc36131d8565b5b613bd087828801613a96565b945050602085013567ffffffffffffffff811115613bf157613bf06131d8565b5b613bfd87828801613a96565b9350506040613c0e87828801613734565b9250506060613c1f87828801613b77565b91505092959194509250565b6000610140820190508181036000830152613c46818d61353c565b90508181036020830152613c5a818c61353c565b9050613c69604083018b6132a2565b613c76606083018a6134d6565b613c8360808301896132a2565b613c9060a08301886132a2565b613c9d60c08301876132a2565b613caa60e08301866132a2565b613cb86101008301856135fe565b613cc6610120830184613646565b9b9a5050505050505050505050565b6000613ce0826138a5565b9050919050565b6000613cf282613cd5565b9050919050565b613d0281613ce7565b82525050565b6000602082019050613d1d6000830184613cf9565b92915050565b7f4e487b7100000000000000000000000000000000000000000000000000000000600052603260045260246000fd5b7f4e487b7100000000000000000000000000000000000000000000000000000000600052601160045260246000fd5b6000613d8c82613298565b9150613d9783613298565b9250828201905080821115613daf57613dae613d52565b5b92915050565b6000613dc082613298565b915060008203613dd357613dd2613d52565b5b600182039050919050565b600081519050613ded8161371d565b92915050565b600060208284031215613e0957613e086131d3565b5b6000613e1784828501613dde565b91505092915050565b6000613e2b82613298565b9150613e3683613298565b9250828202613e4481613298565b91508282048414831517613e5b57613e5a613d52565b5b5092915050565b7f4e487b7100000000000000000000000000000000000000000000000000000000600052601260045260246000fd5b6000613e9c82613298565b9150613ea783613298565b925082613eb757613eb6613e62565b5b828204905092915050565b7f476f7665726e616e63653a20696e76616c696420616464726573730000000000600082015250565b6000613ef8601b836134f0565b9150613f0382613ec2565b602082019050919050565b60006020820190508181036000830152613f2781613eeb565b9050919050565b7f476f7665726e616e63653a20616c7265616479206120626f617264206d656d6260008201527f6572000000000000000000000000000000000000000000000000000000000000602082015250565b6000613f8a6022836134f0565b9150613f9582613f2e565b604082019050919050565b60006020820190508181036000830152613fb981613f7d565b9050919050565b7f4e487b7100000000000000000000000000000000000000000000000000000000600052602260045260246000fd5b6000600282049050600182168061400757607f821691505b60208210810361401a57614019613fc0565b5b50919050565b7f476f7665726e616e63653a206e6f74206120626f617264206d656d6265720000600082015250565b6000614056601e836134f0565b915061406182614020565b602082019050919050565b6000602082019050818103600083015261408581614049565b9050919050565b7f476f7665726e616e63653a206d696e2064656c696265726174696f6e2070657260008201527f696f64206d75737420626520706f736974697665000000000000000000000000602082015250565b60006140e86034836134f0565b91506140f38261408c565b604082019050919050565b60006020820190508181036000830152614117816140db565b9050919050565b600060408201905061413360008301856132a2565b61414060208301846132a2565b9392505050565b7f476f7665726e616e63653a206e6f20746f6b656e7320696e2063697263756c6160008201527f74696f6e00000000000000000000000000000000000000000000000000000000602082015250565b60006141a36024836134f0565b91506141ae82614147565b604082019050919050565b600060208201905081810360008301526141d281614196565b9050919050565b7f476f7665726e616e63653a2070726f706f73616c206973206e6f74206163746960008201527f7665000000000000000000000000000000000000000000000000000000000000602082015250565b60006142356022836134f0565b9150614240826141d9565b604082019050919050565b6000602082019050818103600083015261426481614228565b9050919050565b7f476f7665726e616e63653a206d696e696d756d2064656c696265726174696f6e60008201527f20706572696f64206e6f74206d65740000000000000000000000000000000000602082015250565b60006142c7602f836134f0565b91506142d28261426b565b604082019050919050565b600060208201905081810360008301526142f6816142ba565b9050919050565b7f476f7665726e616e63653a20766f74696e67207374696c6c20696e2070726f6760008201527f7265737300000000000000000000000000000000000000000000000000000000602082015250565b60006143596024836134f0565b9150614364826142fd565b604082019050919050565b600060208201905081810360008301526143888161434c565b9050919050565b60006060820190506143a460008301866135fe565b6143b160208301856132a2565b6143be60408301846132a2565b949350505050565b60006143d182613298565b91507fffffffffffffffffffffffffffffffffffffffffffffffffffffffffffffffff820361440357614402613d52565b5b600182019050919050565b7f476f7665726e616e63653a20766f74696e6720706572696f642068617320656e60008201527f6465640000000000000000000000000000000000000000000000000000000000602082015250565b600061446a6023836134f0565b91506144758261440e565b604082019050919050565b600060208201905081810360008301526144998161445d565b9050919050565b7f476f7665726e616e63653a20616c726561647920766f746564206f6e2074686960008201527f732070726f706f73616c00000000000000000000000000000000000000000000602082015250565b60006144fc602a836134f0565b9150614507826144a0565b604082019050919050565b6000602082019050818103600083015261452b816144ef565b9050919050565b7f476f7665726e616e63653a20766f746520616d6f756e74206d7573742062652060008201527f706f736974697665000000000000000000000000000000000000000000000000602082015250565b600061458e6028836134f0565b915061459982614532565b604082019050919050565b600060208201905081810360008301526145bd81614581565b9050919050565b60006020820190506145d960008301846134d6565b92915050565b7f476f7665726e616e63653a20696e73756666696369656e742048554d4120746f60008201527f6b656e7300000000000000000000000000000000000000000000000000000000602082015250565b600061463b6024836134f0565b9150614646826145df565b604082019050919050565b6000602082019050818103600083015261466a8161462e565b9050919050565b600060408201905061468660008301856134d6565b61469360208301846132a2565b9392505050565b60006040820190506146af600083018561326e565b6146bc60208301846132a2565b9392505050565b7f476f7665726e616e63653a20696e76616c69642071756f72756d20706572636560008201527f6e74616765000000000000000000000000000000000000000000000000000000602082015250565b600061471f6025836134f0565b915061472a826146c3565b604082019050919050565b6000602082019050818103600083015261474e81614712565b9050919050565b7f476f7665726e616e63653a2070726f706f73616c206973206e6f74206170707260008201527f6f76656400000000000000000000000000000000000000000000000000000000602082015250565b60006147b16024836134f0565b91506147bc82614755565b604082019050919050565b600060208201905081810360008301526147e0816147a4565b9050919050565b7f476f7665726e616e63653a20726561736f6e2063616e6e6f7420626520656d7060008201527f7479000000000000000000000000000000000000000000000000000000000000602082015250565b60006148436022836134f0565b915061484e826147e7565b604082019050919050565b6000602082019050818103600083015261487281614836565b9050919050565b60006020820190508181036000830152614893818461353c565b905092915050565b60006060820190506148b06000830186613587565b6148bd60208301856132a2565b6148ca60408301846132d6565b949350505050565b7f476f7665726e616e63653a207374616e6461726420706572696f6420746f6f2060008201527f73686f7274000000000000000000000000000000000000000000000000000000602082015250565b600061492e6025836134f0565b9150614939826148d2565b604082019050919050565b6000602082019050818103600083015261495d81614921565b9050919050565b7f476f7665726e616e63653a20656d657267656e637920706572696f6420746f6f60008201527f2073686f72740000000000000000000000000000000000000000000000000000602082015250565b60006149c06026836134f0565b91506149cb82614964565b604082019050919050565b600060208201905081810360008301526149ef816149b3565b9050919050565b7f476f7665726e616e63653a207374616e64617264206d757374206265206c6f6e60008201527f676572207468616e20656d657267656e63790000000000000000000000000000602082015250565b6000614a526032836134f0565b9150614a5d826149f6565b604082019050919050565b60006020820190508181036000830152614a8181614a45565b9050919050565b7f476f7665726e616e63653a207374616e6461726420706572696f6420746f6f2060008201527f6c6f6e6700000000000000000000000000000000000000000000000000000000602082015250565b6000614ae46024836134f0565b9150614aef82614a88565b604082019050919050565b60006020820190508181036000830152614b1381614ad7565b9050919050565b7f476f7665726e616e63653a20656d657267656e637920706572696f6420746f6f60008201527f206c6f6e67000000000000000000000000000000000000000000000000000000602082015250565b6000614b766025836134f0565b9150614b8182614b1a565b604082019050919050565b60006020820190508181036000830152614ba581614b69565b9050919050565b7f476f7665726e616e63653a207469746c652063616e6e6f7420626520656d707460008201527f7900000000000000000000000000000000000000000000000000000000000000602082015250565b6000614c086021836134f0565b9150614c1382614bac565b604082019050919050565b60006020820190508181036000830152614c3781614bfb565b9050919050565b7f476f7665726e616e63653a206465736372697074696f6e2063616e6e6f74206260008201527f6520656d70747900000000000000000000000000000000000000000000000000602082015250565b6000614c9a6027836134f0565b9150614ca582614c3e565b604082019050919050565b60006020820190508181036000830152614cc981614c8d565b9050919050565b7f476f7665726e616e63653a207469746c6520746f6f206c6f6e67000000000000600082015250565b6000614d06601a836134f0565b9150614d1182614cd0565b602082019050919050565b60006020820190508181036000830152614d3581614cf9565b9050919050565b7f476f7665726e616e63653a206465736372697074696f6e20746f6f206c6f6e67600082015250565b6000614d726020836134f0565b9150614d7d82614d3c565b602082019050919050565b60006020820190508181036000830152614da181614d65565b9050919050565b7f476f7665726e616e63653a20696e76616c696420616d6f756e74000000000000600082015250565b6000614dde601a836134f0565b9150614de982614da8565b602082019050919050565b60006020820190508181036000830152614e0d81614dd1565b9050919050565b7f476f7665726e616e63653a20726563697069656e742063616e6e6f742062652060008201527f7a65726f20616464726573730000000000000000000000000000000000000000602082015250565b6000614e70602c836134f0565b9150614e7b82614e14565b604082019050919050565b60006020820190508181036000830152614e9f81614e63565b9050919050565b7f476f7665726e616e63653a206d6178206163746976652070726f706f73616c7360008201527f2072656163686564000000000000000000000000000000000000000000000000602082015250565b6000614f026028836134f0565b9150614f0d82614ea6565b604082019050919050565b60006020820190508181036000830152614f3181614ef5565b9050919050565b60008160601b9050919050565b6000614f5082614f38565b9050919050565b6000614f6282614f45565b9050919050565b614f7a614f758261342b565b614f57565b82525050565b6000819050919050565b614f9b614f9682613298565b614f80565b82525050565b600081905092915050565b6000614fb7826134e5565b614fc18185614fa1565b9350614fd1818560208601613501565b80840191505092915050565b7f454d455247454e43590000000000000000000000000000000000000000000000600082015250565b6000615013600983614fa1565b915061501e82614fdd565b600982019050919050565b60006150358287614f69565b6014820191506150458286614f8a565b6020820191506150558285614fac565b915061506082615006565b915061506c8284614f8a565b60208201915081905095945050505050565b60008190508160005260206000209050919050565b60006020601f8301049050919050565b600082821b905092915050565b6000600883026150e07fffffffffffffffffffffffffffffffffffffffffffffffffffffffffffffffff826150a3565b6150ea86836150a3565b95508019841693508086168417925050509392505050565b600061511d61511861511384613298565b61389b565b613298565b9050919050565b6000819050919050565b61513783615102565b61514b61514382615124565b8484546150b0565b825550505050565b600090565b615160615153565b61516b81848461512e565b505050565b5b8181101561518f57615184600082615158565b600181019050615171565b5050565b601f8211156151d4576151a58161507e565b6151ae84615093565b810160208510156151bd578190505b6151d16151c985615093565b830182615170565b50505b505050565b600082821c905092915050565b60006151f7600019846008026151d9565b1980831691505092915050565b600061521083836151e6565b9150826002028217905092915050565b615229826134e5565b67ffffffffffffffff81111561524257615241613999565b5b61524c8254613fef565b615257828285615193565b600060209050601f83116001811461528a5760008415615278578287015190505b6152828582615204565b8655506152ea565b601f1984166152988661507e565b60005b828110156152c05784890151825560018201915060208501945060208101905061529b565b868310156152dd57848901516152d9601f8916826151e6565b8355505b6001600288020188555050505b505050505050565b60006152fd826138c7565b9050919050565b61530d816152f2565b82525050565b6000608082019050818103600083015261532d818761353c565b905061533c60208301866132a2565b6153496040830185615304565b6153566060830184613646565b95945050505050565b7f476f7665726e616e63653a206d6178206d75737420626520706f736974697665600082015250565b60006153956020836134f0565b91506153a08261535f565b602082019050919050565b600060208201905081810360008301526153c481615388565b9050919050565b6000815190506153da81613915565b92915050565b6000602082840312156153f6576153f56131d3565b5b6000615404848285016153cb565b91505092915050565b7f476f7665726e616e63653a206f6e6c7920646f6e61746f72732063616e20637260008201527f656174652070726f706f73616c73000000000000000000000000000000000000602082015250565b6000615469602e836134f0565b91506154748261540d565b604082019050919050565b600060208201905081810360008301526154988161545c565b9050919050565b60006154ab8287614f69565b6014820191506154bb8286614f8a565b6020820191506154cb8285614fac565b91506154d78284614f8a565b60208201915081905095945050505050565b60006040820190506154fe60008301856134d6565b61550b60208301846132d6565b939250505056fea264697066735822122005bb6f640a357bbe89e7e5babad4065c89bd4c6acf5924d556730152ca7c0c3364736f6c634300081d0033",
  "linkReferences": {},
  "deployedLinkReferences": {}
}